{
  "contractName": "PokemonFactory",
  "abi": [
    {
      "inputs": [],
      "payable": false,
      "stateMutability": "nonpayable",
      "type": "constructor"
    },
    {
      "anonymous": false,
      "inputs": [
        {
          "indexed": false,
          "internalType": "uint256",
          "name": "slot",
          "type": "uint256"
        },
        {
          "indexed": false,
          "internalType": "string",
          "name": "name",
          "type": "string"
        },
        {
          "indexed": false,
          "internalType": "string",
          "name": "nickname",
          "type": "string"
        },
        {
          "indexed": false,
          "internalType": "uint256",
          "name": "dna",
          "type": "uint256"
        },
        {
          "indexed": false,
          "internalType": "uint256",
          "name": "pokedexNum",
          "type": "uint256"
        },
        {
          "indexed": false,
          "internalType": "string",
          "name": "stype",
          "type": "string"
        }
      ],
      "name": "NewPokemon",
      "type": "event"
    },
    {
      "anonymous": false,
      "inputs": [
        {
          "indexed": true,
          "internalType": "address",
          "name": "previousOwner",
          "type": "address"
        },
        {
          "indexed": true,
          "internalType": "address",
          "name": "newOwner",
          "type": "address"
        }
      ],
      "name": "OwnershipTransferred",
      "type": "event"
    },
    {
      "constant": true,
      "inputs": [],
      "name": "isOwner",
      "outputs": [
        {
          "internalType": "bool",
          "name": "",
          "type": "bool"
        }
      ],
      "payable": false,
      "stateMutability": "view",
      "type": "function"
    },
    {
      "constant": true,
      "inputs": [],
      "name": "owner",
      "outputs": [
        {
          "internalType": "address",
          "name": "",
          "type": "address"
        }
      ],
      "payable": false,
      "stateMutability": "view",
      "type": "function"
    },
    {
      "constant": true,
      "inputs": [
        {
          "internalType": "uint256",
          "name": "",
          "type": "uint256"
        }
      ],
      "name": "pokedexNumToName",
      "outputs": [
        {
          "internalType": "string",
          "name": "",
          "type": "string"
        }
      ],
      "payable": false,
      "stateMutability": "view",
      "type": "function"
    },
    {
      "constant": true,
      "inputs": [
        {
          "internalType": "uint256",
          "name": "",
          "type": "uint256"
        }
      ],
      "name": "pokemonNumToType",
      "outputs": [
        {
          "internalType": "string",
          "name": "",
          "type": "string"
        }
      ],
      "payable": false,
      "stateMutability": "view",
      "type": "function"
    },
    {
      "constant": true,
      "inputs": [
        {
          "internalType": "uint256",
          "name": "",
          "type": "uint256"
        }
      ],
      "name": "pokemonToOwner",
      "outputs": [
        {
          "internalType": "address",
          "name": "",
          "type": "address"
        }
      ],
      "payable": false,
      "stateMutability": "view",
      "type": "function"
    },
    {
      "constant": true,
      "inputs": [
        {
          "internalType": "uint256",
          "name": "",
          "type": "uint256"
        }
      ],
      "name": "pokemons",
      "outputs": [
        {
          "internalType": "string",
          "name": "name",
          "type": "string"
        },
        {
          "internalType": "string",
          "name": "nickname",
          "type": "string"
        },
        {
          "internalType": "string",
          "name": "stype",
          "type": "string"
        },
        {
          "internalType": "uint256",
          "name": "dna",
          "type": "uint256"
        },
        {
          "internalType": "uint256",
          "name": "pokedexNum",
          "type": "uint256"
        },
        {
          "internalType": "uint256",
          "name": "level",
          "type": "uint256"
        }
      ],
      "payable": false,
      "stateMutability": "view",
      "type": "function"
    },
    {
      "constant": false,
      "inputs": [],
      "name": "renounceOwnership",
      "outputs": [],
      "payable": false,
      "stateMutability": "nonpayable",
      "type": "function"
    },
    {
      "constant": false,
      "inputs": [
        {
          "internalType": "address",
          "name": "newOwner",
          "type": "address"
        }
      ],
      "name": "transferOwnership",
      "outputs": [],
      "payable": false,
      "stateMutability": "nonpayable",
      "type": "function"
    },
    {
      "constant": false,
      "inputs": [
        {
          "internalType": "string",
          "name": "_name",
          "type": "string"
        },
        {
          "internalType": "string",
          "name": "_nickname",
          "type": "string"
        },
        {
          "internalType": "uint256",
          "name": "_dna",
          "type": "uint256"
        },
        {
          "internalType": "uint256",
          "name": "_pokedexNum",
          "type": "uint256"
        },
        {
          "internalType": "string",
          "name": "_stype",
          "type": "string"
        }
      ],
      "name": "_createPokemon",
      "outputs": [],
      "payable": false,
      "stateMutability": "nonpayable",
      "type": "function"
    },
    {
      "constant": true,
      "inputs": [
        {
          "internalType": "address",
          "name": "_owner",
          "type": "address"
        }
      ],
      "name": "getPokemonsByOwner",
      "outputs": [
        {
          "internalType": "uint256[]",
          "name": "",
          "type": "uint256[]"
        }
      ],
      "payable": false,
      "stateMutability": "view",
      "type": "function"
    },
    {
      "constant": false,
      "inputs": [
        {
          "internalType": "string",
          "name": "_nickname",
          "type": "string"
        }
      ],
      "name": "createRandomPokemon",
      "outputs": [],
      "payable": false,
      "stateMutability": "nonpayable",
      "type": "function"
    }
  ],
  "bytecode": "0x608060405260006001556010600255600254600a0a6003553480156200002457600080fd5b50336000806101000a81548173ffffffffffffffffffffffffffffffffffffffff021916908373ffffffffffffffffffffffffffffffffffffffff1602179055506000809054906101000a900473ffffffffffffffffffffffffffffffffffffffff1673ffffffffffffffffffffffffffffffffffffffff16600073ffffffffffffffffffffffffffffffffffffffff167f8be0079c531659141344cd1fd0a4f28419497f9722a3daafe3b4186f6b6457e060405160405180910390a36040518060400160405280600981526020017f62756c6261736175720000000000000000000000000000000000000000000000815250600760006001815260200190815260200160002090805190602001906200014092919062000327565b506040518060400160405280600a81526020017f636861726d616e6465720000000000000000000000000000000000000000000081525060076000600281526020019081526020016000209080519060200190620001a092919062000327565b506040518060400160405280600881526020017f7371756972746c65000000000000000000000000000000000000000000000000815250600760006003815260200190815260200160002090805190602001906200020092919062000327565b506040518060400160405280600581526020017f6772617373000000000000000000000000000000000000000000000000000000815250600860006001815260200190815260200160002090805190602001906200026092919062000327565b506040518060400160405280600481526020017f666972650000000000000000000000000000000000000000000000000000000081525060086000600281526020019081526020016000209080519060200190620002c092919062000327565b506040518060400160405280600581526020017f7761746572000000000000000000000000000000000000000000000000000000815250600860006003815260200190815260200160002090805190602001906200032092919062000327565b50620003d6565b828054600181600116156101000203166002900490600052602060002090601f016020900481019282601f106200036a57805160ff19168380011785556200039b565b828001600101855582156200039b579182015b828111156200039a5782518255916020019190600101906200037d565b5b509050620003aa9190620003ae565b5090565b620003d391905b80821115620003cf576000816000905550600101620003b5565b5090565b90565b61164780620003e66000396000f3fe608060405234801561001057600080fd5b50600436106100a95760003560e01c80638f32d59b116100715780638f32d59b1461039d578063a0329747146103bf578063a85cf30a1461047a578063d1cc7b3714610677578063f2fde38b1461071e578063f330d75714610762576100a9565b80632f7467b3146100ae57806335beeb271461011c578063715018a6146101b557806385831079146101bf5780638da5cb5b14610353575b600080fd5b6100da600480360360208110156100c457600080fd5b8101908080359060200190929190505050610809565b604051808273ffffffffffffffffffffffffffffffffffffffff1673ffffffffffffffffffffffffffffffffffffffff16815260200191505060405180910390f35b61015e6004803603602081101561013257600080fd5b81019080803573ffffffffffffffffffffffffffffffffffffffff16906020019092919050505061083c565b6040518080602001828103825283818151815260200191508051906020019060200280838360005b838110156101a1578082015181840152602081019050610186565b505050509050019250505060405180910390f35b6101bd610969565b005b6101eb600480360360208110156101d557600080fd5b8101908080359060200190929190505050610a39565b6040518080602001806020018060200187815260200186815260200185815260200184810384528a818151815260200191508051906020019080838360005b8381101561024557808201518184015260208101905061022a565b50505050905090810190601f1680156102725780820380516001836020036101000a031916815260200191505b50848103835289818151815260200191508051906020019080838360005b838110156102ab578082015181840152602081019050610290565b50505050905090810190601f1680156102d85780820380516001836020036101000a031916815260200191505b50848103825288818151815260200191508051906020019080838360005b838110156103115780820151818401526020810190506102f6565b50505050905090810190601f16801561033e5780820380516001836020036101000a031916815260200191505b50995050505050505050505060405180910390f35b61035b610c4a565b604051808273ffffffffffffffffffffffffffffffffffffffff1673ffffffffffffffffffffffffffffffffffffffff16815260200191505060405180910390f35b6103a5610c73565b604051808215151515815260200191505060405180910390f35b610478600480360360208110156103d557600080fd5b81019080803590602001906401000000008111156103f257600080fd5b82018360208201111561040457600080fd5b8035906020019184600183028401116401000000008311171561042657600080fd5b91908080601f016020809104026020016040519081016040528093929190818152602001838380828437600081840152601f19601f820116905080830192505050505050509192919290505050610cca565b005b610675600480360360a081101561049057600080fd5b81019080803590602001906401000000008111156104ad57600080fd5b8201836020820111156104bf57600080fd5b803590602001918460018302840111640100000000831117156104e157600080fd5b91908080601f016020809104026020016040519081016040528093929190818152602001838380828437600081840152601f19601f8201169050808301925050505050505091929192908035906020019064010000000081111561054457600080fd5b82018360208201111561055657600080fd5b8035906020019184600183028401116401000000008311171561057857600080fd5b91908080601f016020809104026020016040519081016040528093929190818152602001838380828437600081840152601f19601f8201169050808301925050505050505091929192908035906020019092919080359060200190929190803590602001906401000000008111156105ef57600080fd5b82018360208201111561060157600080fd5b8035906020019184600183028401116401000000008311171561062357600080fd5b91908080601f016020809104026020016040519081016040528093929190818152602001838380828437600081840152601f19601f820116905080830192505050505050509192919290505050610eaf565b005b6106a36004803603602081101561068d57600080fd5b81019080803590602001909291905050506111bf565b6040518080602001828103825283818151815260200191508051906020019080838360005b838110156106e35780820151818401526020810190506106c8565b50505050905090810190601f1680156107105780820380516001836020036101000a031916815260200191505b509250505060405180910390f35b6107606004803603602081101561073457600080fd5b81019080803573ffffffffffffffffffffffffffffffffffffffff16906020019092919050505061126f565b005b61078e6004803603602081101561077857600080fd5b810190808035906020019092919050505061128c565b6040518080602001828103825283818151815260200191508051906020019080838360005b838110156107ce5780820151818401526020810190506107b3565b50505050905090810190601f1680156107fb5780820380516001836020036101000a031916815260200191505b509250505060405180910390f35b60056020528060005260406000206000915054906101000a900473ffffffffffffffffffffffffffffffffffffffff1681565b606080600660008473ffffffffffffffffffffffffffffffffffffffff1673ffffffffffffffffffffffffffffffffffffffff168152602001908152602001600020546040519080825280602002602001820160405280156108ad5781602001602082028038833980820191505090505b509050600080905060008090505b60048054905081101561095e578473ffffffffffffffffffffffffffffffffffffffff166005600083815260200190815260200160002060009054906101000a900473ffffffffffffffffffffffffffffffffffffffff1673ffffffffffffffffffffffffffffffffffffffff161415610951578083838151811061093c57fe5b60200260200101818152505081806001019250505b80806001019150506108bb565b508192505050919050565b610971610c73565b61097a57600080fd5b600073ffffffffffffffffffffffffffffffffffffffff166000809054906101000a900473ffffffffffffffffffffffffffffffffffffffff1673ffffffffffffffffffffffffffffffffffffffff167f8be0079c531659141344cd1fd0a4f28419497f9722a3daafe3b4186f6b6457e060405160405180910390a360008060006101000a81548173ffffffffffffffffffffffffffffffffffffffff021916908373ffffffffffffffffffffffffffffffffffffffff160217905550565b60048181548110610a4657fe5b9060005260206000209060060201600091509050806000018054600181600116156101000203166002900480601f016020809104026020016040519081016040528092919081815260200182805460018160011615610100020316600290048015610af25780601f10610ac757610100808354040283529160200191610af2565b820191906000526020600020905b815481529060010190602001808311610ad557829003601f168201915b505050505090806001018054600181600116156101000203166002900480601f016020809104026020016040519081016040528092919081815260200182805460018160011615610100020316600290048015610b905780601f10610b6557610100808354040283529160200191610b90565b820191906000526020600020905b815481529060010190602001808311610b7357829003601f168201915b505050505090806002018054600181600116156101000203166002900480601f016020809104026020016040519081016040528092919081815260200182805460018160011615610100020316600290048015610c2e5780601f10610c0357610100808354040283529160200191610c2e565b820191906000526020600020905b815481529060010190602001808311610c1157829003601f168201915b5050505050908060030154908060040154908060050154905086565b60008060009054906101000a900473ffffffffffffffffffffffffffffffffffffffff16905090565b60008060009054906101000a900473ffffffffffffffffffffffffffffffffffffffff1673ffffffffffffffffffffffffffffffffffffffff163373ffffffffffffffffffffffffffffffffffffffff1614905090565b6005600660003373ffffffffffffffffffffffffffffffffffffffff1673ffffffffffffffffffffffffffffffffffffffff168152602001908152602001600020541115610d1757600080fd5b6000610d23600361133c565b90506060600760006001840181526020019081526020016000208054600181600116156101000203166002900480601f016020809104026020016040519081016040528092919081815260200182805460018160011615610100020316600290048015610dd15780601f10610da657610100808354040283529160200191610dd1565b820191906000526020600020905b815481529060010190602001808311610db457829003601f168201915b505050505090506060600860006001850181526020019081526020016000208054600181600116156101000203166002900480601f016020809104026020016040519081016040528092919081815260200182805460018160011615610100020316600290048015610e845780601f10610e5957610100808354040283529160200191610e84565b820191906000526020600020905b815481529060010190602001808311610e6757829003601f168201915b505050505090506000610e96856113cb565b9050610ea88386836001880186610eaf565b5050505050565b6000600160046040518060c001604052808981526020018881526020018581526020018781526020018681526020016001815250908060018154018082558091505090600182039060005260206000209060060201600090919290919091506000820151816000019080519060200190610f2a92919061156d565b506020820151816001019080519060200190610f4792919061156d565b506040820151816002019080519060200190610f6492919061156d565b50606082015181600301556080820151816004015560a082015181600501555050039050336005600083815260200190815260200160002060006101000a81548173ffffffffffffffffffffffffffffffffffffffff021916908373ffffffffffffffffffffffffffffffffffffffff160217905550600660003373ffffffffffffffffffffffffffffffffffffffff1673ffffffffffffffffffffffffffffffffffffffff168152602001908152602001600020600081548092919060010191905055507f44b87d4ecbe873f372cc7eaf2e0837852b94f61a28046c0816d8060c840679b881878787878760405180878152602001806020018060200186815260200185815260200180602001848103845289818151815260200191508051906020019080838360005b838110156110aa57808201518184015260208101905061108f565b50505050905090810190601f1680156110d75780820380516001836020036101000a031916815260200191505b50848103835288818151815260200191508051906020019080838360005b838110156111105780820151818401526020810190506110f5565b50505050905090810190601f16801561113d5780820380516001836020036101000a031916815260200191505b50848103825285818151815260200191508051906020019080838360005b8381101561117657808201518184015260208101905061115b565b50505050905090810190601f1680156111a35780820380516001836020036101000a031916815260200191505b50995050505050505050505060405180910390a1505050505050565b60076020528060005260406000206000915090508054600181600116156101000203166002900480601f0160208091040260200160405190810160405280929190818152602001828054600181600116156101000203166002900480156112675780601f1061123c57610100808354040283529160200191611267565b820191906000526020600020905b81548152906001019060200180831161124a57829003601f168201915b505050505081565b611277610c73565b61128057600080fd5b61128981611475565b50565b60086020528060005260406000206000915090508054600181600116156101000203166002900480601f0160208091040260200160405190810160405280929190818152602001828054600181600116156101000203166002900480156113345780601f1061130957610100808354040283529160200191611334565b820191906000526020600020905b81548152906001019060200180831161131757829003601f168201915b505050505081565b6000600160008154809291906001019190505550814233600154604051602001808481526020018373ffffffffffffffffffffffffffffffffffffffff1673ffffffffffffffffffffffffffffffffffffffff1660601b815260140182815260200193505050506040516020818303038152906040528051906020012060001c816113c357fe5b069050919050565b600080826001546040516020018083805190602001908083835b6020831061140857805182526020820191506020810190506020830392506113e5565b6001836020036101000a038019825116818451168082178552505050505050905001828152602001925050506040516020818303038152906040528051906020012060001c9050600160008154809291906001019190505550600354818161146c57fe5b06915050919050565b600073ffffffffffffffffffffffffffffffffffffffff168173ffffffffffffffffffffffffffffffffffffffff1614156114af57600080fd5b8073ffffffffffffffffffffffffffffffffffffffff166000809054906101000a900473ffffffffffffffffffffffffffffffffffffffff1673ffffffffffffffffffffffffffffffffffffffff167f8be0079c531659141344cd1fd0a4f28419497f9722a3daafe3b4186f6b6457e060405160405180910390a3806000806101000a81548173ffffffffffffffffffffffffffffffffffffffff021916908373ffffffffffffffffffffffffffffffffffffffff16021790555050565b828054600181600116156101000203166002900490600052602060002090601f016020900481019282601f106115ae57805160ff19168380011785556115dc565b828001600101855582156115dc579182015b828111156115db5782518255916020019190600101906115c0565b5b5090506115e991906115ed565b5090565b61160f91905b8082111561160b5760008160009055506001016115f3565b5090565b9056fea265627a7a7231582035995adf9ffba85864462e248cb463e95c5ac656507ad8ca3aa9ee6ffa234ab664736f6c63430005100032",
  "source": "pragma solidity >=0.5.0 <0.6.0;\n\nimport \"./Ownable.sol\";\n\ncontract PokemonFactory is Ownable{\n\n\n    event NewPokemon(uint slot, string name, string nickname, uint dna, uint pokedexNum, string stype);  \n    uint randNonce = 0;\n    uint dnaDigits = 16;\n    uint dnaModulus = 10 ** dnaDigits; \n\n\n    struct Pokemon {\n        string name;\n        string nickname;\n        string stype;\n        uint dna;\n        uint pokedexNum;\n        uint level;\n    }\n    constructor() public {\n        pokedexNumToName[1] = \"bulbasaur\";\n        pokedexNumToName[2] = \"charmander\";\n        pokedexNumToName[3] = \"squirtle\";\n        pokemonNumToType[1] = \"grass\";\n        pokemonNumToType[2] = \"fire\";\n        pokemonNumToType[3] = \"water\";\n\n    }\n\n    Pokemon[] public pokemons;\n\n    mapping (uint => address) public pokemonToOwner;\n    mapping (address => uint) ownerPokemonCount;\n    mapping (uint => string) public pokedexNumToName;\n    mapping (uint => string) public pokemonNumToType;\n\n    function addPokemonToPokedex(uint pokedexNum, string memory name) internal{\n        pokedexNumToName[pokedexNum] = name;\n    }\n\n    function _createPokemon(string memory _name, string memory _nickname, uint _dna, uint _pokedexNum, string memory _stype) public {\n        uint slot = pokemons.push(Pokemon(_name, _nickname, _stype, _dna, _pokedexNum, 1)) - 1;\n        pokemonToOwner[slot] = msg.sender;\n        ownerPokemonCount[msg.sender]++;\n        emit NewPokemon(slot, _name, _nickname, _dna, _pokedexNum, _stype);\n    }\n\n    function _generateRandomDna(string memory _str) private returns (uint) {\n        uint rand = uint(keccak256(abi.encodePacked(_str, randNonce)));\n        randNonce++;\n        return rand % dnaModulus;\n    }\n\n    function randPokemonId(uint _modulus) internal returns(uint) {\n        randNonce++;\n        return uint(keccak256(abi.encodePacked(now, msg.sender, randNonce))) % _modulus;\n    } \n\n    function getPokemonsByOwner (address _owner) external view returns (uint[] memory) {\n        uint[] memory result = new uint[](ownerPokemonCount[_owner]);\n        uint counter = 0;\n        for (uint i = 0; i < pokemons.length; i++) {\n            if (pokemonToOwner[i] == _owner) {\n            result[counter] = i;\n            counter++;\n            }\n        }   \n\n        return result;\n    }\n\n    function createRandomPokemon(string memory _nickname) public {\n        require(ownerPokemonCount[msg.sender] <=5);\n        uint randPokedexNum = randPokemonId(3);\n        string memory name = pokedexNumToName[randPokedexNum+1];\n        string memory stype = pokemonNumToType[randPokedexNum+1];\n        uint randDna = _generateRandomDna(_nickname);\n\n        _createPokemon(name, _nickname, randDna, randPokedexNum + 1, stype); \n    }\n}",
  "sourcePath": "/Users/timothyongliangli/Downloads/CryptoPokemon/contracts/PokemonFactory.sol",
  "compiler": {
    "name": "solc",
    "version": "0.5.16+commit.9c3226ce.Emscripten.clang"
  },
  "schemaVersion": "3.3.0",
  "updatedAt": "2020-10-25T03:20:38.345Z",
  "devdoc": {
    "methods": {
      "isOwner()": {
        "return": "true if `msg.sender` is the owner of the contract."
      },
      "owner()": {
        "return": "the address of the owner."
      },
      "renounceOwnership()": {
        "details": "Allows the current owner to relinquish control of the contract."
      },
      "transferOwnership(address)": {
        "details": "Allows the current owner to transfer control of the contract to a newOwner.",
        "params": {
          "newOwner": "The address to transfer ownership to."
        }
      }
    }
  },
  "userdoc": {
    "methods": {
      "renounceOwnership()": {
        "notice": "Renouncing to ownership will leave the contract without an owner. It will not be possible to call the functions with the `onlyOwner` modifier anymore."
      }
    }
  }
}