{
  "contractName": "PokemonAttack",
  "abi": [
    {
      "anonymous": false,
      "inputs": [
        {
          "indexed": false,
          "internalType": "string",
          "name": "name",
          "type": "string"
        },
        {
          "indexed": false,
          "internalType": "string",
          "name": "enemyName",
          "type": "string"
        },
        {
          "indexed": false,
          "internalType": "uint256",
          "name": "damageTaken",
          "type": "uint256"
        }
      ],
      "name": "EnemyPokemonDamaged",
      "type": "event"
    },
    {
      "anonymous": false,
      "inputs": [
        {
          "indexed": false,
          "internalType": "string",
          "name": "previousName",
          "type": "string"
        },
        {
          "indexed": false,
          "internalType": "string",
          "name": "currentName",
          "type": "string"
        }
      ],
      "name": "EvolvedPokemon",
      "type": "event"
    },
    {
      "anonymous": false,
      "inputs": [
        {
          "indexed": false,
          "internalType": "uint256",
          "name": "pokemonId",
          "type": "uint256"
        },
        {
          "indexed": false,
          "internalType": "uint256",
          "name": "pokedexNum",
          "type": "uint256"
        },
        {
          "indexed": false,
          "internalType": "string",
          "name": "name",
          "type": "string"
        }
      ],
      "name": "LeveledUp",
      "type": "event"
    },
    {
      "anonymous": false,
      "inputs": [
        {
          "indexed": false,
          "internalType": "uint256",
          "name": "id",
          "type": "uint256"
        },
        {
          "indexed": false,
          "internalType": "string",
          "name": "name",
          "type": "string"
        },
        {
          "indexed": false,
          "internalType": "string",
          "name": "nickname",
          "type": "string"
        },
        {
          "indexed": false,
          "internalType": "uint256",
          "name": "dna",
          "type": "uint256"
        },
        {
          "indexed": false,
          "internalType": "uint256",
          "name": "pokedexNum",
          "type": "uint256"
        },
        {
          "indexed": false,
          "internalType": "string",
          "name": "stype",
          "type": "string"
        }
      ],
      "name": "NewPokemon",
      "type": "event"
    },
    {
      "anonymous": false,
      "inputs": [
        {
          "indexed": true,
          "internalType": "address",
          "name": "previousOwner",
          "type": "address"
        },
        {
          "indexed": true,
          "internalType": "address",
          "name": "newOwner",
          "type": "address"
        }
      ],
      "name": "OwnershipTransferred",
      "type": "event"
    },
    {
      "anonymous": false,
      "inputs": [
        {
          "indexed": false,
          "internalType": "string",
          "name": "name",
          "type": "string"
        },
        {
          "indexed": false,
          "internalType": "string",
          "name": "enemyName",
          "type": "string"
        }
      ],
      "name": "PokemonDeath",
      "type": "event"
    },
    {
      "constant": false,
      "inputs": [
        {
          "internalType": "string",
          "name": "_name",
          "type": "string"
        },
        {
          "internalType": "string",
          "name": "_nickname",
          "type": "string"
        },
        {
          "internalType": "uint256",
          "name": "_dna",
          "type": "uint256"
        },
        {
          "internalType": "uint256",
          "name": "_pokedexNum",
          "type": "uint256"
        },
        {
          "internalType": "string",
          "name": "_stype",
          "type": "string"
        }
      ],
      "name": "_createPokemon",
      "outputs": [],
      "payable": false,
      "stateMutability": "nonpayable",
      "type": "function"
    },
    {
      "constant": false,
      "inputs": [
        {
          "internalType": "uint256",
          "name": "_pokemonId",
          "type": "uint256"
        },
        {
          "internalType": "string",
          "name": "_newName",
          "type": "string"
        }
      ],
      "name": "changeName",
      "outputs": [],
      "payable": false,
      "stateMutability": "nonpayable",
      "type": "function"
    },
    {
      "constant": false,
      "inputs": [
        {
          "internalType": "uint256",
          "name": "_pokemonId",
          "type": "uint256"
        },
        {
          "internalType": "string",
          "name": "_newNickname",
          "type": "string"
        }
      ],
      "name": "changeNickname",
      "outputs": [],
      "payable": false,
      "stateMutability": "nonpayable",
      "type": "function"
    },
    {
      "constant": false,
      "inputs": [
        {
          "internalType": "uint256",
          "name": "_pokemonId",
          "type": "uint256"
        },
        {
          "internalType": "uint256",
          "name": "_newPokedexNum",
          "type": "uint256"
        }
      ],
      "name": "changePokedexNum",
      "outputs": [],
      "payable": false,
      "stateMutability": "nonpayable",
      "type": "function"
    },
    {
      "constant": false,
      "inputs": [
        {
          "internalType": "string",
          "name": "_nickname",
          "type": "string"
        }
      ],
      "name": "createRandomPokemon",
      "outputs": [],
      "payable": false,
      "stateMutability": "nonpayable",
      "type": "function"
    },
    {
      "constant": false,
      "inputs": [
        {
          "internalType": "address",
          "name": "_owner",
          "type": "address"
        }
      ],
      "name": "getPokemonsByOwner",
      "outputs": [
        {
          "internalType": "uint256[]",
          "name": "",
          "type": "uint256[]"
        }
      ],
      "payable": false,
      "stateMutability": "nonpayable",
      "type": "function"
    },
    {
      "constant": true,
      "inputs": [],
      "name": "isOwner",
      "outputs": [
        {
          "internalType": "bool",
          "name": "",
          "type": "bool"
        }
      ],
      "payable": false,
      "stateMutability": "view",
      "type": "function"
    },
    {
      "constant": false,
      "inputs": [
        {
          "internalType": "uint256",
          "name": "_pokemonId",
          "type": "uint256"
        }
      ],
      "name": "levelUp",
      "outputs": [],
      "payable": false,
      "stateMutability": "nonpayable",
      "type": "function"
    },
    {
      "constant": true,
      "inputs": [],
      "name": "owner",
      "outputs": [
        {
          "internalType": "address",
          "name": "",
          "type": "address"
        }
      ],
      "payable": false,
      "stateMutability": "view",
      "type": "function"
    },
    {
      "constant": true,
      "inputs": [
        {
          "internalType": "uint256",
          "name": "",
          "type": "uint256"
        }
      ],
      "name": "pokedexNumToName",
      "outputs": [
        {
          "internalType": "string",
          "name": "",
          "type": "string"
        }
      ],
      "payable": false,
      "stateMutability": "view",
      "type": "function"
    },
    {
      "constant": true,
      "inputs": [
        {
          "internalType": "uint256",
          "name": "",
          "type": "uint256"
        }
      ],
      "name": "pokemonNumToType",
      "outputs": [
        {
          "internalType": "string",
          "name": "",
          "type": "string"
        }
      ],
      "payable": false,
      "stateMutability": "view",
      "type": "function"
    },
    {
      "constant": true,
      "inputs": [
        {
          "internalType": "uint256",
          "name": "",
          "type": "uint256"
        }
      ],
      "name": "pokemonToOwner",
      "outputs": [
        {
          "internalType": "address",
          "name": "",
          "type": "address"
        }
      ],
      "payable": false,
      "stateMutability": "view",
      "type": "function"
    },
    {
      "constant": true,
      "inputs": [
        {
          "internalType": "uint256",
          "name": "",
          "type": "uint256"
        }
      ],
      "name": "pokemons",
      "outputs": [
        {
          "internalType": "string",
          "name": "name",
          "type": "string"
        },
        {
          "internalType": "string",
          "name": "nickname",
          "type": "string"
        },
        {
          "internalType": "string",
          "name": "stype",
          "type": "string"
        },
        {
          "internalType": "uint256",
          "name": "id",
          "type": "uint256"
        },
        {
          "internalType": "uint256",
          "name": "dna",
          "type": "uint256"
        },
        {
          "internalType": "uint256",
          "name": "pokedexNum",
          "type": "uint256"
        },
        {
          "internalType": "uint256",
          "name": "level",
          "type": "uint256"
        },
        {
          "internalType": "uint256",
          "name": "readyTime",
          "type": "uint256"
        },
        {
          "internalType": "uint256",
          "name": "health",
          "type": "uint256"
        }
      ],
      "payable": false,
      "stateMutability": "view",
      "type": "function"
    },
    {
      "constant": false,
      "inputs": [],
      "name": "renounceOwnership",
      "outputs": [],
      "payable": false,
      "stateMutability": "nonpayable",
      "type": "function"
    },
    {
      "constant": false,
      "inputs": [
        {
          "internalType": "uint256",
          "name": "_fee",
          "type": "uint256"
        }
      ],
      "name": "setLevelUpFee",
      "outputs": [],
      "payable": false,
      "stateMutability": "nonpayable",
      "type": "function"
    },
    {
      "constant": false,
      "inputs": [
        {
          "internalType": "address",
          "name": "newOwner",
          "type": "address"
        }
      ],
      "name": "transferOwnership",
      "outputs": [],
      "payable": false,
      "stateMutability": "nonpayable",
      "type": "function"
    },
    {
      "constant": false,
      "inputs": [
        {
          "internalType": "uint256",
          "name": "_pokemonId",
          "type": "uint256"
        },
        {
          "internalType": "uint256",
          "name": "_targetId",
          "type": "uint256"
        }
      ],
      "name": "calculateDamage",
      "outputs": [
        {
          "internalType": "uint256",
          "name": "",
          "type": "uint256"
        }
      ],
      "payable": false,
      "stateMutability": "nonpayable",
      "type": "function"
    },
    {
      "constant": false,
      "inputs": [
        {
          "internalType": "uint256",
          "name": "_pokemonId",
          "type": "uint256"
        },
        {
          "internalType": "uint256",
          "name": "_targetId",
          "type": "uint256"
        }
      ],
      "name": "attack",
      "outputs": [],
      "payable": false,
      "stateMutability": "nonpayable",
      "type": "function"
    }
  ],
  "bytecode": "0x608060405260006001556010600255600254600a0a600355601e60045566038d7ea4c68000600a556014600b55336000806101000a81548173ffffffffffffffffffffffffffffffffffffffff021916908373ffffffffffffffffffffffffffffffffffffffff1602179055506000809054906101000a900473ffffffffffffffffffffffffffffffffffffffff1673ffffffffffffffffffffffffffffffffffffffff16600073ffffffffffffffffffffffffffffffffffffffff167f8be0079c531659141344cd1fd0a4f28419497f9722a3daafe3b4186f6b6457e060405160405180910390a36040518060400160405280600981526020017f62756c62617361757200000000000000000000000000000000000000000000008152506008600060018152602001908152602001600020908051906020019062000147929190620007ae565b506040518060400160405280600a81526020017f636861726d616e6465720000000000000000000000000000000000000000000081525060086000600281526020019081526020016000209080519060200190620001a7929190620007ae565b506040518060400160405280600881526020017f7371756972746c650000000000000000000000000000000000000000000000008152506008600060038152602001908152602001600020908051906020019062000207929190620007ae565b506040518060400160405280600581526020017f67726173730000000000000000000000000000000000000000000000000000008152506009600060018152602001908152602001600020908051906020019062000267929190620007ae565b506040518060400160405280600481526020017f666972650000000000000000000000000000000000000000000000000000000081525060096000600281526020019081526020016000209080519060200190620002c7929190620007ae565b506040518060400160405280600581526020017f77617465720000000000000000000000000000000000000000000000000000008152506009600060038152602001908152602001600020908051906020019062000327929190620007ae565b506040518060400160405280600781526020017f69767973617572000000000000000000000000000000000000000000000000008152506008600060048152602001908152602001600020908051906020019062000387929190620007ae565b506040518060400160405280600a81526020017f636861726d656c656f6e0000000000000000000000000000000000000000000081525060086000600581526020019081526020016000209080519060200190620003e7929190620007ae565b506040518060400160405280600981526020017f776172746f72746c6500000000000000000000000000000000000000000000008152506008600060068152602001908152602001600020908051906020019062000447929190620007ae565b506040518060400160405280600581526020017f677261737300000000000000000000000000000000000000000000000000000081525060096000600481526020019081526020016000209080519060200190620004a7929190620007ae565b506040518060400160405280600481526020017f66697265000000000000000000000000000000000000000000000000000000008152506009600060058152602001908152602001600020908051906020019062000507929190620007ae565b506040518060400160405280600581526020017f77617465720000000000000000000000000000000000000000000000000000008152506009600060068152602001908152602001600020908051906020019062000567929190620007ae565b506040518060400160405280600881526020017f76656e757361757200000000000000000000000000000000000000000000000081525060086000600781526020019081526020016000209080519060200190620005c7929190620007ae565b506040518060400160405280600981526020017f63686172697a61726400000000000000000000000000000000000000000000008152506008600060088152602001908152602001600020908051906020019062000627929190620007ae565b506040518060400160405280600981526020017f626c6173746f69736500000000000000000000000000000000000000000000008152506008600060098152602001908152602001600020908051906020019062000687929190620007ae565b506040518060400160405280600581526020017f677261737300000000000000000000000000000000000000000000000000000081525060096000600781526020019081526020016000209080519060200190620006e7929190620007ae565b506040518060400160405280600481526020017f66697265000000000000000000000000000000000000000000000000000000008152506009600060088152602001908152602001600020908051906020019062000747929190620007ae565b506040518060400160405280600581526020017f776174657200000000000000000000000000000000000000000000000000000081525060096000600981526020019081526020016000209080519060200190620007a7929190620007ae565b506200085d565b828054600181600116156101000203166002900490600052602060002090601f016020900481019282601f10620007f157805160ff191683800117855562000822565b8280016001018555821562000822579182015b828111156200082157825182559160200191906001019062000804565b5b50905062000831919062000835565b5090565b6200085a91905b80821115620008565760008160009055506001016200083c565b5090565b90565b612bf4806200086d6000396000f3fe608060405234801561001057600080fd5b50600436106101165760003560e01c8063a0329747116100a2578063d1cc7b3711610071578063d1cc7b37146108a7578063e1fa76381461094e578063e46237c314610986578063f2fde38b146109be578063f330d75714610a0257610116565b8063a03297471461053e578063a85cf30a146105f9578063c39cbef1146107f6578063ccf670f81461087957610116565b80636136779e116100e95780636136779e1461029c578063715018a61461031f57806385831079146103295780638da5cb5b146104d25780638f32d59b1461051c57610116565b80630ce90ec21461011b5780632f7467b31461014957806335beeb27146101b75780634c683e8f14610250575b600080fd5b6101476004803603602081101561013157600080fd5b8101908080359060200190929190505050610aa9565b005b6101756004803603602081101561015f57600080fd5b8101908080359060200190929190505050610ce2565b604051808273ffffffffffffffffffffffffffffffffffffffff1673ffffffffffffffffffffffffffffffffffffffff16815260200191505060405180910390f35b6101f9600480360360208110156101cd57600080fd5b81019080803573ffffffffffffffffffffffffffffffffffffffff169060200190929190505050610d15565b6040518080602001828103825283818151815260200191508051906020019060200280838360005b8381101561023c578082015181840152602081019050610221565b505050509050019250505060405180910390f35b6102866004803603604081101561026657600080fd5b810190808035906020019092919080359060200190929190505050610e42565b6040518082815260200191505060405180910390f35b61031d600480360360408110156102b257600080fd5b8101908080359060200190929190803590602001906401000000008111156102d957600080fd5b8201836020820111156102eb57600080fd5b8035906020019184600183028401116401000000008311171561030d57600080fd5b90919293919293905050506113af565b005b61032761147f565b005b6103556004803603602081101561033f57600080fd5b810190808035906020019092919050505061154f565b604051808060200180602001806020018a815260200189815260200188815260200187815260200186815260200185815260200184810384528d818151815260200191508051906020019080838360005b838110156103c15780820151818401526020810190506103a6565b50505050905090810190601f1680156103ee5780820380516001836020036101000a031916815260200191505b5084810383528c818151815260200191508051906020019080838360005b8381101561042757808201518184015260208101905061040c565b50505050905090810190601f1680156104545780820380516001836020036101000a031916815260200191505b5084810382528b818151815260200191508051906020019080838360005b8381101561048d578082015181840152602081019050610472565b50505050905090810190601f1680156104ba5780820380516001836020036101000a031916815260200191505b509c5050505050505050505050505060405180910390f35b6104da611772565b604051808273ffffffffffffffffffffffffffffffffffffffff1673ffffffffffffffffffffffffffffffffffffffff16815260200191505060405180910390f35b61052461179b565b604051808215151515815260200191505060405180910390f35b6105f76004803603602081101561055457600080fd5b810190808035906020019064010000000081111561057157600080fd5b82018360208201111561058357600080fd5b803590602001918460018302840111640100000000831117156105a557600080fd5b91908080601f016020809104026020016040519081016040528093929190818152602001838380828437600081840152601f19601f8201169050808301925050505050505091929192905050506117f2565b005b6107f4600480360360a081101561060f57600080fd5b810190808035906020019064010000000081111561062c57600080fd5b82018360208201111561063e57600080fd5b8035906020019184600183028401116401000000008311171561066057600080fd5b91908080601f016020809104026020016040519081016040528093929190818152602001838380828437600081840152601f19601f820116905080830192505050505050509192919290803590602001906401000000008111156106c357600080fd5b8201836020820111156106d557600080fd5b803590602001918460018302840111640100000000831117156106f757600080fd5b91908080601f016020809104026020016040519081016040528093929190818152602001838380828437600081840152601f19601f82011690508083019250505050505050919291929080359060200190929190803590602001909291908035906020019064010000000081111561076e57600080fd5b82018360208201111561078057600080fd5b803590602001918460018302840111640100000000831117156107a257600080fd5b91908080601f016020809104026020016040519081016040528093929190818152602001838380828437600081840152601f19601f8201169050808301925050505050505091929192905050506119d7565b005b6108776004803603604081101561080c57600080fd5b81019080803590602001909291908035906020019064010000000081111561083357600080fd5b82018360208201111561084557600080fd5b8035906020019184600183028401116401000000008311171561086757600080fd5b9091929391929390505050611d3e565b005b6108a56004803603602081101561088f57600080fd5b8101908080359060200190929190505050611d71565b005b6108d3600480360360208110156108bd57600080fd5b8101908080359060200190929190505050611d8c565b6040518080602001828103825283818151815260200191508051906020019080838360005b838110156109135780820151818401526020810190506108f8565b50505050905090810190601f1680156109405780820380516001836020036101000a031916815260200191505b509250505060405180910390f35b6109846004803603604081101561096457600080fd5b810190808035906020019092919080359060200190929190505050611e3c565b005b6109bc6004803603604081101561099c57600080fd5b8101908080359060200190929190803590602001909291905050506123e1565b005b610a00600480360360208110156109d457600080fd5b81019080803573ffffffffffffffffffffffffffffffffffffffff169060200190929190505050612408565b005b610a2e60048036036020811015610a1857600080fd5b8101908080359060200190929190505050612425565b6040518080602001828103825283818151815260200191508051906020019080838360005b83811015610a6e578082015181840152602081019050610a53565b50505050905090810190601f168015610a9b5780820380516001836020036101000a031916815260200191505b509250505060405180910390f35b806006600082815260200190815260200160002060009054906101000a900473ffffffffffffffffffffffffffffffffffffffff1673ffffffffffffffffffffffffffffffffffffffff163373ffffffffffffffffffffffffffffffffffffffff1614610b1557600080fd5b600060058381548110610b2457fe5b906000526020600020906009020160060154905060058381548110610b4557fe5b9060005260206000209060090201600601600081548092919060010191905055506005808481548110610b7457fe5b90600052602060002090600902016006015410158015610b945750600581105b80610bca5750600a60058481548110610ba957fe5b90600052602060002090600902016006015410158015610bc95750600a81105b5b15610bd957610bd8836124d5565b5b7f81f09a6a68733e67fe0fca474c21d653f8b2120cedb80909c5fe331bf54b0a808360058581548110610c0857fe5b90600052602060002090600902016005015460058681548110610c2757fe5b90600052602060002090600902016000016040518084815260200183815260200180602001828103825283818154600181600116156101000203166002900481526020019150805460018160011615610100020316600290048015610ccd5780601f10610ca257610100808354040283529160200191610ccd565b820191906000526020600020905b815481529060010190602001808311610cb057829003601f168201915b505094505050505060405180910390a1505050565b60066020528060005260406000206000915054906101000a900473ffffffffffffffffffffffffffffffffffffffff1681565b606080600760008473ffffffffffffffffffffffffffffffffffffffff1673ffffffffffffffffffffffffffffffffffffffff16815260200190815260200160002054604051908082528060200260200182016040528015610d865781602001602082028038833980820191505090505b509050600080905060008090505b600580549050811015610e37578473ffffffffffffffffffffffffffffffffffffffff166006600083815260200190815260200160002060009054906101000a900473ffffffffffffffffffffffffffffffffffffffff1673ffffffffffffffffffffffffffffffffffffffff161415610e2a5780838381518110610e1557fe5b60200260200101818152505081806001019250505b8080600101915050610d94565b508192505050919050565b60008060058481548110610e5257fe5b90600052602060002090600902019050600060058481548110610e7157fe5b90600052602060002090600902019050806002016040518082805460018160011615610100020316600290048015610ee05780601f10610ebe576101008083540402835291820191610ee0565b820191906000526020600020905b815481529060010190602001808311610ecc575b50509150506040518091039020826002016040518082805460018160011615610100020316600290048015610f4c5780601f10610f2a576101008083540402835291820191610f4c565b820191906000526020600020905b815481529060010190602001808311610f38575b5050915050604051809103902014806110bd57506040518060400160405280600581526020017f677261737300000000000000000000000000000000000000000000000000000081525080519060200120826002016040518082805460018160011615610100020316600290048015610ffc5780601f10610fda576101008083540402835291820191610ffc565b820191906000526020600020905b815481529060010190602001808311610fe8575b505091505060405180910390201480156110bc57506040518060400160405280600481526020017f6669726500000000000000000000000000000000000000000000000000000000815250805190602001208160020160405180828054600181600116156101000203166002900480156110ad5780601f1061108b5761010080835404028352918201916110ad565b820191906000526020600020905b815481529060010190602001808311611099575b50509150506040518091039020145b5b8061122057506040518060400160405280600481526020017f66697265000000000000000000000000000000000000000000000000000000008152508051906020012082600201604051808280546001816001161561010002031660029004801561115f5780601f1061113d57610100808354040283529182019161115f565b820191906000526020600020905b81548152906001019060200180831161114b575b5050915050604051809103902014801561121f57506040518060400160405280600581526020017f7761746572000000000000000000000000000000000000000000000000000000815250805190602001208160020160405180828054600181600116156101000203166002900480156112105780601f106111ee576101008083540402835291820191611210565b820191906000526020600020905b8154815290600101906020018083116111fc575b50509150506040518091039020145b5b8061138357506040518060400160405280600581526020017f7761746572000000000000000000000000000000000000000000000000000000815250805190602001208260020160405180828054600181600116156101000203166002900480156112c25780601f106112a05761010080835404028352918201916112c2565b820191906000526020600020905b8154815290600101906020018083116112ae575b5050915050604051809103902014801561138257506040518060400160405280600581526020017f6772617373000000000000000000000000000000000000000000000000000000815250805190602001208160020160405180828054600181600116156101000203166002900480156113735780601f10611351576101008083540402835291820191611373565b820191906000526020600020905b81548152906001019060200180831161135f575b50509150506040518091039020145b5b1561139e576002600b548161139457fe5b04925050506113a9565b6002600b5402925050505b92915050565b60028381600582815481106113c057fe5b90600052602060002090600902016006015410156113dd57600080fd5b846006600082815260200190815260200160002060009054906101000a900473ffffffffffffffffffffffffffffffffffffffff1673ffffffffffffffffffffffffffffffffffffffff163373ffffffffffffffffffffffffffffffffffffffff161461144957600080fd5b84846005888154811061145857fe5b906000526020600020906009020160010191906114769291906129cb565b50505050505050565b61148761179b565b61149057600080fd5b600073ffffffffffffffffffffffffffffffffffffffff166000809054906101000a900473ffffffffffffffffffffffffffffffffffffffff1673ffffffffffffffffffffffffffffffffffffffff167f8be0079c531659141344cd1fd0a4f28419497f9722a3daafe3b4186f6b6457e060405160405180910390a360008060006101000a81548173ffffffffffffffffffffffffffffffffffffffff021916908373ffffffffffffffffffffffffffffffffffffffff160217905550565b6005818154811061155c57fe5b9060005260206000209060090201600091509050806000018054600181600116156101000203166002900480601f0160208091040260200160405190810160405280929190818152602001828054600181600116156101000203166002900480156116085780601f106115dd57610100808354040283529160200191611608565b820191906000526020600020905b8154815290600101906020018083116115eb57829003601f168201915b505050505090806001018054600181600116156101000203166002900480601f0160208091040260200160405190810160405280929190818152602001828054600181600116156101000203166002900480156116a65780601f1061167b576101008083540402835291602001916116a6565b820191906000526020600020905b81548152906001019060200180831161168957829003601f168201915b505050505090806002018054600181600116156101000203166002900480601f0160208091040260200160405190810160405280929190818152602001828054600181600116156101000203166002900480156117445780601f1061171957610100808354040283529160200191611744565b820191906000526020600020905b81548152906001019060200180831161172757829003601f168201915b5050505050908060030154908060040154908060050154908060060154908060070154908060080154905089565b60008060009054906101000a900473ffffffffffffffffffffffffffffffffffffffff16905090565b60008060009054906101000a900473ffffffffffffffffffffffffffffffffffffffff1673ffffffffffffffffffffffffffffffffffffffff163373ffffffffffffffffffffffffffffffffffffffff1614905090565b6005600760003373ffffffffffffffffffffffffffffffffffffffff1673ffffffffffffffffffffffffffffffffffffffff16815260200190815260200160002054111561183f57600080fd5b600061184b6003612773565b90506060600860006001840181526020019081526020016000208054600181600116156101000203166002900480601f0160208091040260200160405190810160405280929190818152602001828054600181600116156101000203166002900480156118f95780601f106118ce576101008083540402835291602001916118f9565b820191906000526020600020905b8154815290600101906020018083116118dc57829003601f168201915b505050505090506060600960006001850181526020019081526020016000208054600181600116156101000203166002900480601f0160208091040260200160405190810160405280929190818152602001828054600181600116156101000203166002900480156119ac5780601f10611981576101008083540402835291602001916119ac565b820191906000526020600020905b81548152906001019060200180831161198f57829003601f168201915b5050505050905060006119be85612802565b90506119d083868360018801866119d7565b5050505050565b60006001600560405180610120016040528089815260200188815260200185815260200160008152602001878152602001868152602001600181526020014281526020016064815250908060018154018082558091505090600182039060005260206000209060090201600090919290919091506000820151816000019080519060200190611a67929190612a4b565b506020820151816001019080519060200190611a84929190612a4b565b506040820151816002019080519060200190611aa1929190612a4b565b50606082015181600301556080820151816004015560a0820151816005015560c0820151816006015560e0820151816007015561010082015181600801555050039050336006600083815260200190815260200160002060006101000a81548173ffffffffffffffffffffffffffffffffffffffff021916908373ffffffffffffffffffffffffffffffffffffffff160217905550600760003373ffffffffffffffffffffffffffffffffffffffff1673ffffffffffffffffffffffffffffffffffffffff168152602001908152602001600020600081548092919060010191905055508060058281548110611b9357fe5b9060005260206000209060090201600301819055507f44b87d4ecbe873f372cc7eaf2e0837852b94f61a28046c0816d8060c840679b881878787878760405180878152602001806020018060200186815260200185815260200180602001848103845289818151815260200191508051906020019080838360005b83811015611c29578082015181840152602081019050611c0e565b50505050905090810190601f168015611c565780820380516001836020036101000a031916815260200191505b50848103835288818151815260200191508051906020019080838360005b83811015611c8f578082015181840152602081019050611c74565b50505050905090810190601f168015611cbc5780820380516001836020036101000a031916815260200191505b50848103825285818151815260200191508051906020019080838360005b83811015611cf5578082015181840152602081019050611cda565b50505050905090810190601f168015611d225780820380516001836020036101000a031916815260200191505b50995050505050505050505060405180910390a1505050505050565b818160058581548110611d4d57fe5b90600052602060002090600902016000019190611d6b9291906129cb565b50505050565b611d7961179b565b611d8257600080fd5b80600a8190555050565b60086020528060005260406000206000915090508054600181600116156101000203166002900480601f016020809104026020016040519081016040528092919081815260200182805460018160011615610100020316600290048015611e345780601f10611e0957610100808354040283529160200191611e34565b820191906000526020600020905b815481529060010190602001808311611e1757829003601f168201915b505050505081565b816006600082815260200190815260200160002060009054906101000a900473ffffffffffffffffffffffffffffffffffffffff1673ffffffffffffffffffffffffffffffffffffffff163373ffffffffffffffffffffffffffffffffffffffff1614611ea857600080fd5b816006600082815260200190815260200160002060009054906101000a900473ffffffffffffffffffffffffffffffffffffffff1673ffffffffffffffffffffffffffffffffffffffff163373ffffffffffffffffffffffffffffffffffffffff161415611f1557600080fd5b600060058581548110611f2457fe5b90600052602060002090600902019050600060058581548110611f4357fe5b90600052602060002090600902019050611f5c826128ac565b611f6557600080fd5b6000611f718787610e42565b90508160080154811061226b576000826008018190555060008360060154905083600601600081548092919060010191905055506005846006015410158015611fba5750600581105b80611fd65750600a846006015410158015611fd55750600a81105b5b15611fe557611fe4886124d5565b5b7fccea1e8c1557f9c53150640975f6d24ffa002195242a198cd947566ee35e1076846000018460000160405180806020018060200183810383528581815460018160011615610100020316600290048152602001915080546001816001161561010002031660029004801561209b5780601f106120705761010080835404028352916020019161209b565b820191906000526020600020905b81548152906001019060200180831161207e57829003601f168201915b505083810382528481815460018160011615610100020316600290048152602001915080546001816001161561010002031660029004801561211e5780601f106120f35761010080835404028352916020019161211e565b820191906000526020600020905b81548152906001019060200180831161210157829003601f168201915b505094505050505060405180910390a160076000600660008a815260200190815260200160002060009054906101000a900473ffffffffffffffffffffffffffffffffffffffff1673ffffffffffffffffffffffffffffffffffffffff1673ffffffffffffffffffffffffffffffffffffffff16815260200190815260200160002060008154809291906001900391905055506006600088815260200190815260200160002060006101000a81549073ffffffffffffffffffffffffffffffffffffffff0219169055600587815481106121f457fe5b9060005260206000209060090201600080820160006122139190612acb565b6001820160006122239190612acb565b6002820160006122339190612acb565b60038201600090556004820160009055600582016000905560068201600090556007820160009055600882016000905550505061227e565b8082600801600082825403925050819055505b7f3fddd863b03472e6b68bbe9d77cb0e4d3fc82f94ff7b4e280002077a93daba4683600001836000018360405180806020018060200184815260200183810383528681815460018160011615610100020316600290048152602001915080546001816001161561010002031660029004801561233b5780601f106123105761010080835404028352916020019161233b565b820191906000526020600020905b81548152906001019060200180831161231e57829003601f168201915b50508381038252858181546001816001161561010002031660029004815260200191508054600181600116156101000203166002900480156123be5780601f10612393576101008083540402835291602001916123be565b820191906000526020600020905b8154815290600101906020018083116123a157829003601f168201915b50509550505050505060405180910390a16123d8836128bd565b50505050505050565b80600583815481106123ef57fe5b9060005260206000209060090201600501819055505050565b61241061179b565b61241957600080fd5b612422816128d3565b50565b60096020528060005260406000206000915090508054600181600116156101000203166002900480601f0160208091040260200160405190810160405280929190818152602001828054600181600116156101000203166002900480156124cd5780601f106124a2576101008083540402835291602001916124cd565b820191906000526020600020905b8154815290600101906020018083116124b057829003601f168201915b505050505081565b6060600582815481106124e457fe5b90600052602060002090600902016000018054600181600116156101000203166002900480601f0160208091040260200160405190810160405280929190818152602001828054600181600116156101000203166002900480156125895780601f1061255e57610100808354040283529160200191612589565b820191906000526020600020905b81548152906001019060200180831161256c57829003601f168201915b5050505050905060036005838154811061259f57fe5b90600052602060002090600902016005016000828254019250508190555060086000600584815481106125ce57fe5b9060005260206000209060090201600501548152602001908152602001600020600583815481106125fb57fe5b9060005260206000209060090201600001908054600181600116156101000203166002900461262b929190612b13565b507fad49ccb1dfebd145165559ec561b1746a4443519cad67f36273ba0a952b2df43816005848154811061265b57fe5b9060005260206000209060090201600001604051808060200180602001838103835285818151815260200191508051906020019080838360005b838110156126b0578082015181840152602081019050612695565b50505050905090810190601f1680156126dd5780820380516001836020036101000a031916815260200191505b5083810382528481815460018160011615610100020316600290048152602001915080546001816001161561010002031660029004801561275f5780601f106127345761010080835404028352916020019161275f565b820191906000526020600020905b81548152906001019060200180831161274257829003601f168201915b505094505050505060405180910390a15050565b6000600160008154809291906001019190505550814233600154604051602001808481526020018373ffffffffffffffffffffffffffffffffffffffff1673ffffffffffffffffffffffffffffffffffffffff1660601b815260140182815260200193505050506040516020818303038152906040528051906020012060001c816127fa57fe5b069050919050565b600080826001546040516020018083805190602001908083835b6020831061283f578051825260208201915060208101905060208303925061281c565b6001836020036101000a038019825116818451168082178552505050505050905001828152602001925050506040516020818303038152906040528051906020012060001c905060016000815480929190600101919050555060035481816128a357fe5b06915050919050565b600042826007015411159050919050565b600454420163ffffffff16816007018190555050565b600073ffffffffffffffffffffffffffffffffffffffff168173ffffffffffffffffffffffffffffffffffffffff16141561290d57600080fd5b8073ffffffffffffffffffffffffffffffffffffffff166000809054906101000a900473ffffffffffffffffffffffffffffffffffffffff1673ffffffffffffffffffffffffffffffffffffffff167f8be0079c531659141344cd1fd0a4f28419497f9722a3daafe3b4186f6b6457e060405160405180910390a3806000806101000a81548173ffffffffffffffffffffffffffffffffffffffff021916908373ffffffffffffffffffffffffffffffffffffffff16021790555050565b828054600181600116156101000203166002900490600052602060002090601f016020900481019282601f10612a0c57803560ff1916838001178555612a3a565b82800160010185558215612a3a579182015b82811115612a39578235825591602001919060010190612a1e565b5b509050612a479190612b9a565b5090565b828054600181600116156101000203166002900490600052602060002090601f016020900481019282601f10612a8c57805160ff1916838001178555612aba565b82800160010185558215612aba579182015b82811115612ab9578251825591602001919060010190612a9e565b5b509050612ac79190612b9a565b5090565b50805460018160011615610100020316600290046000825580601f10612af15750612b10565b601f016020900490600052602060002090810190612b0f9190612b9a565b5b50565b828054600181600116156101000203166002900490600052602060002090601f016020900481019282601f10612b4c5780548555612b89565b82800160010185558215612b8957600052602060002091601f016020900482015b82811115612b88578254825591600101919060010190612b6d565b5b509050612b969190612b9a565b5090565b612bbc91905b80821115612bb8576000816000905550600101612ba0565b5090565b9056fea265627a7a723158200524d126e3199f9ed891acf12a5f3a4918e612029040eb5f8b0ec5c822153ef764736f6c63430005100032",
  "source": "pragma solidity >=0.5.0 <0.6.0;\n\nimport \"./PokemonHelper.sol\";\n\ncontract PokemonAttack is PokemonHelper {\n    uint damage = 20;\n\nevent EnemyPokemonDamaged(string name, string enemyName, uint damageTaken);  \nevent PokemonDeath(string name, string enemyName);  \n\n  function calculateDamage(uint _pokemonId, uint _targetId) public returns (uint){\n    Pokemon storage pokemon = pokemons[_pokemonId];\n    Pokemon storage enemyPokemon = pokemons[_targetId];\n    if(keccak256(bytes(pokemon.stype)) == keccak256(bytes(enemyPokemon.stype))||\n    keccak256(bytes(pokemon.stype)) == keccak256(bytes(\"grass\")) && \n    keccak256(bytes(enemyPokemon.stype)) == keccak256(bytes(\"fire\")) ||\n    keccak256(bytes(pokemon.stype)) == keccak256(bytes(\"fire\")) && \n    keccak256(bytes(enemyPokemon.stype)) == keccak256(bytes(\"water\")) ||\n    keccak256(bytes(pokemon.stype)) == keccak256(bytes(\"water\")) && \n    keccak256(bytes(enemyPokemon.stype)) == keccak256(bytes(\"grass\"))){\n        return damage / 2;\n    } else {\n        return damage * 2;\n    }\n  }\n\n  function _triggerCooldown(Pokemon storage _pokemon) internal {\n    _pokemon.readyTime = uint32(now + cooldownTime);\n  }\n\n  function _isReady(Pokemon storage _pokemon) internal view returns (bool) {\n    return (_pokemon.readyTime <= now);\n  }\n\n  function attack(uint _pokemonId, uint _targetId) external onlyOwnerOf(_pokemonId) notOwnerOf(_targetId){\n    Pokemon storage pokemon = pokemons[_pokemonId];\n    Pokemon storage enemyPokemon = pokemons[_targetId];\n    require(_isReady(pokemon));\n    uint calculatedDamage = calculateDamage(_pokemonId, _targetId);\n    if(calculatedDamage >= enemyPokemon.health) {\n      enemyPokemon.health = 0;\n      uint previousLevel = pokemon.level;\n      pokemon.level++;\n      if (pokemon.level >=5 && previousLevel <5 || pokemon.level >=10 && previousLevel <10) {\n      evolvePokemon(_pokemonId);\n      }\n      emit PokemonDeath(pokemon.name, enemyPokemon.name);\n      ownerPokemonCount[pokemonToOwner[_targetId]] --;\n      delete pokemonToOwner[_targetId];\n      delete pokemons[_targetId];\n    } else {\n      enemyPokemon.health -= calculatedDamage;\n    }\n    emit EnemyPokemonDamaged(pokemon.name, enemyPokemon.name, calculatedDamage);\n    _triggerCooldown(pokemon);\n\n  }\n\n\n}\n",
  "sourcePath": "/Users/timothyongliangli/Desktop/CryptoPokemon/contracts/PokemonAttack.sol",
  "compiler": {
    "name": "solc",
    "version": "0.5.16+commit.9c3226ce.Emscripten.clang"
  },
  "schemaVersion": "3.3.0",
  "updatedAt": "2020-10-30T20:25:51.762Z",
  "devdoc": {
    "methods": {
      "isOwner()": {
        "return": "true if `msg.sender` is the owner of the contract."
      },
      "owner()": {
        "return": "the address of the owner."
      },
      "renounceOwnership()": {
        "details": "Allows the current owner to relinquish control of the contract."
      },
      "transferOwnership(address)": {
        "details": "Allows the current owner to transfer control of the contract to a newOwner.",
        "params": {
          "newOwner": "The address to transfer ownership to."
        }
      }
    }
  },
  "userdoc": {
    "methods": {
      "renounceOwnership()": {
        "notice": "Renouncing to ownership will leave the contract without an owner. It will not be possible to call the functions with the `onlyOwner` modifier anymore."
      }
    }
  }
}