{
  "contractName": "PokemonHelper",
  "abi": [
    {
      "anonymous": false,
      "inputs": [
        {
          "indexed": false,
          "internalType": "string",
          "name": "previousName",
          "type": "string"
        },
        {
          "indexed": false,
          "internalType": "string",
          "name": "currentName",
          "type": "string"
        }
      ],
      "name": "EvolvedPokemon",
      "type": "event"
    },
    {
      "anonymous": false,
      "inputs": [
        {
          "indexed": false,
          "internalType": "uint256",
          "name": "pokemonId",
          "type": "uint256"
        },
        {
          "indexed": false,
          "internalType": "uint256",
          "name": "pokedexNum",
          "type": "uint256"
        },
        {
          "indexed": false,
          "internalType": "string",
          "name": "name",
          "type": "string"
        }
      ],
      "name": "LeveledUp",
      "type": "event"
    },
    {
      "anonymous": false,
      "inputs": [
        {
          "indexed": false,
          "internalType": "uint256",
          "name": "id",
          "type": "uint256"
        },
        {
          "indexed": false,
          "internalType": "string",
          "name": "name",
          "type": "string"
        },
        {
          "indexed": false,
          "internalType": "string",
          "name": "nickname",
          "type": "string"
        },
        {
          "indexed": false,
          "internalType": "uint256",
          "name": "dna",
          "type": "uint256"
        },
        {
          "indexed": false,
          "internalType": "uint256",
          "name": "pokedexNum",
          "type": "uint256"
        },
        {
          "indexed": false,
          "internalType": "string",
          "name": "stype",
          "type": "string"
        }
      ],
      "name": "NewPokemon",
      "type": "event"
    },
    {
      "anonymous": false,
      "inputs": [
        {
          "indexed": true,
          "internalType": "address",
          "name": "previousOwner",
          "type": "address"
        },
        {
          "indexed": true,
          "internalType": "address",
          "name": "newOwner",
          "type": "address"
        }
      ],
      "name": "OwnershipTransferred",
      "type": "event"
    },
    {
      "constant": false,
      "inputs": [
        {
          "internalType": "string",
          "name": "_name",
          "type": "string"
        },
        {
          "internalType": "string",
          "name": "_nickname",
          "type": "string"
        },
        {
          "internalType": "uint256",
          "name": "_dna",
          "type": "uint256"
        },
        {
          "internalType": "uint256",
          "name": "_pokedexNum",
          "type": "uint256"
        },
        {
          "internalType": "string",
          "name": "_stype",
          "type": "string"
        }
      ],
      "name": "_createPokemon",
      "outputs": [],
      "payable": false,
      "stateMutability": "nonpayable",
      "type": "function"
    },
    {
      "constant": false,
      "inputs": [
        {
          "internalType": "string",
          "name": "_nickname",
          "type": "string"
        }
      ],
      "name": "createRandomPokemon",
      "outputs": [],
      "payable": false,
      "stateMutability": "nonpayable",
      "type": "function"
    },
    {
      "constant": false,
      "inputs": [
        {
          "internalType": "address",
          "name": "_owner",
          "type": "address"
        }
      ],
      "name": "getPokemonsByOwner",
      "outputs": [
        {
          "internalType": "uint256[]",
          "name": "",
          "type": "uint256[]"
        }
      ],
      "payable": false,
      "stateMutability": "nonpayable",
      "type": "function"
    },
    {
      "constant": true,
      "inputs": [],
      "name": "isOwner",
      "outputs": [
        {
          "internalType": "bool",
          "name": "",
          "type": "bool"
        }
      ],
      "payable": false,
      "stateMutability": "view",
      "type": "function"
    },
    {
      "constant": true,
      "inputs": [],
      "name": "owner",
      "outputs": [
        {
          "internalType": "address",
          "name": "",
          "type": "address"
        }
      ],
      "payable": false,
      "stateMutability": "view",
      "type": "function"
    },
    {
      "constant": true,
      "inputs": [
        {
          "internalType": "uint256",
          "name": "",
          "type": "uint256"
        }
      ],
      "name": "pokedexNumToName",
      "outputs": [
        {
          "internalType": "string",
          "name": "",
          "type": "string"
        }
      ],
      "payable": false,
      "stateMutability": "view",
      "type": "function"
    },
    {
      "constant": true,
      "inputs": [
        {
          "internalType": "uint256",
          "name": "",
          "type": "uint256"
        }
      ],
      "name": "pokemonNumToType",
      "outputs": [
        {
          "internalType": "string",
          "name": "",
          "type": "string"
        }
      ],
      "payable": false,
      "stateMutability": "view",
      "type": "function"
    },
    {
      "constant": true,
      "inputs": [
        {
          "internalType": "uint256",
          "name": "",
          "type": "uint256"
        }
      ],
      "name": "pokemonToOwner",
      "outputs": [
        {
          "internalType": "address",
          "name": "",
          "type": "address"
        }
      ],
      "payable": false,
      "stateMutability": "view",
      "type": "function"
    },
    {
      "constant": true,
      "inputs": [
        {
          "internalType": "uint256",
          "name": "",
          "type": "uint256"
        }
      ],
      "name": "pokemons",
      "outputs": [
        {
          "internalType": "string",
          "name": "name",
          "type": "string"
        },
        {
          "internalType": "string",
          "name": "nickname",
          "type": "string"
        },
        {
          "internalType": "string",
          "name": "stype",
          "type": "string"
        },
        {
          "internalType": "uint256",
          "name": "id",
          "type": "uint256"
        },
        {
          "internalType": "uint256",
          "name": "dna",
          "type": "uint256"
        },
        {
          "internalType": "uint256",
          "name": "pokedexNum",
          "type": "uint256"
        },
        {
          "internalType": "uint256",
          "name": "level",
          "type": "uint256"
        },
        {
          "internalType": "uint256",
          "name": "readyTime",
          "type": "uint256"
        },
        {
          "internalType": "uint256",
          "name": "health",
          "type": "uint256"
        }
      ],
      "payable": false,
      "stateMutability": "view",
      "type": "function"
    },
    {
      "constant": false,
      "inputs": [],
      "name": "renounceOwnership",
      "outputs": [],
      "payable": false,
      "stateMutability": "nonpayable",
      "type": "function"
    },
    {
      "constant": false,
      "inputs": [
        {
          "internalType": "address",
          "name": "newOwner",
          "type": "address"
        }
      ],
      "name": "transferOwnership",
      "outputs": [],
      "payable": false,
      "stateMutability": "nonpayable",
      "type": "function"
    },
    {
      "constant": false,
      "inputs": [
        {
          "internalType": "uint256",
          "name": "_fee",
          "type": "uint256"
        }
      ],
      "name": "setLevelUpFee",
      "outputs": [],
      "payable": false,
      "stateMutability": "nonpayable",
      "type": "function"
    },
    {
      "constant": false,
      "inputs": [
        {
          "internalType": "uint256",
          "name": "_pokemonId",
          "type": "uint256"
        }
      ],
      "name": "levelUp",
      "outputs": [],
      "payable": false,
      "stateMutability": "nonpayable",
      "type": "function"
    },
    {
      "constant": false,
      "inputs": [
        {
          "internalType": "uint256",
          "name": "_pokemonId",
          "type": "uint256"
        },
        {
          "internalType": "string",
          "name": "_newNickname",
          "type": "string"
        }
      ],
      "name": "changeNickname",
      "outputs": [],
      "payable": false,
      "stateMutability": "nonpayable",
      "type": "function"
    },
    {
      "constant": false,
      "inputs": [
        {
          "internalType": "uint256",
          "name": "_pokemonId",
          "type": "uint256"
        },
        {
          "internalType": "string",
          "name": "_newName",
          "type": "string"
        }
      ],
      "name": "changeName",
      "outputs": [],
      "payable": false,
      "stateMutability": "nonpayable",
      "type": "function"
    },
    {
      "constant": false,
      "inputs": [
        {
          "internalType": "uint256",
          "name": "_pokemonId",
          "type": "uint256"
        },
        {
          "internalType": "uint256",
          "name": "_newPokedexNum",
          "type": "uint256"
        }
      ],
      "name": "changePokedexNum",
      "outputs": [],
      "payable": false,
      "stateMutability": "nonpayable",
      "type": "function"
    }
  ],
  "bytecode": "0x608060405260006001556010600255600254600a0a600355601e60045566038d7ea4c68000600a55336000806101000a81548173ffffffffffffffffffffffffffffffffffffffff021916908373ffffffffffffffffffffffffffffffffffffffff1602179055506000809054906101000a900473ffffffffffffffffffffffffffffffffffffffff1673ffffffffffffffffffffffffffffffffffffffff16600073ffffffffffffffffffffffffffffffffffffffff167f8be0079c531659141344cd1fd0a4f28419497f9722a3daafe3b4186f6b6457e060405160405180910390a36040518060400160405280600981526020017f62756c62617361757200000000000000000000000000000000000000000000008152506008600060018152602001908152602001600020908051906020019062000142929190620007a9565b506040518060400160405280600a81526020017f636861726d616e6465720000000000000000000000000000000000000000000081525060086000600281526020019081526020016000209080519060200190620001a2929190620007a9565b506040518060400160405280600881526020017f7371756972746c650000000000000000000000000000000000000000000000008152506008600060038152602001908152602001600020908051906020019062000202929190620007a9565b506040518060400160405280600581526020017f67726173730000000000000000000000000000000000000000000000000000008152506009600060018152602001908152602001600020908051906020019062000262929190620007a9565b506040518060400160405280600481526020017f666972650000000000000000000000000000000000000000000000000000000081525060096000600281526020019081526020016000209080519060200190620002c2929190620007a9565b506040518060400160405280600581526020017f77617465720000000000000000000000000000000000000000000000000000008152506009600060038152602001908152602001600020908051906020019062000322929190620007a9565b506040518060400160405280600781526020017f69767973617572000000000000000000000000000000000000000000000000008152506008600060048152602001908152602001600020908051906020019062000382929190620007a9565b506040518060400160405280600a81526020017f636861726d656c656f6e0000000000000000000000000000000000000000000081525060086000600581526020019081526020016000209080519060200190620003e2929190620007a9565b506040518060400160405280600981526020017f776172746f72746c6500000000000000000000000000000000000000000000008152506008600060068152602001908152602001600020908051906020019062000442929190620007a9565b506040518060400160405280600581526020017f677261737300000000000000000000000000000000000000000000000000000081525060096000600481526020019081526020016000209080519060200190620004a2929190620007a9565b506040518060400160405280600481526020017f66697265000000000000000000000000000000000000000000000000000000008152506009600060058152602001908152602001600020908051906020019062000502929190620007a9565b506040518060400160405280600581526020017f77617465720000000000000000000000000000000000000000000000000000008152506009600060068152602001908152602001600020908051906020019062000562929190620007a9565b506040518060400160405280600881526020017f76656e757361757200000000000000000000000000000000000000000000000081525060086000600781526020019081526020016000209080519060200190620005c2929190620007a9565b506040518060400160405280600981526020017f63686172697a61726400000000000000000000000000000000000000000000008152506008600060088152602001908152602001600020908051906020019062000622929190620007a9565b506040518060400160405280600981526020017f626c6173746f69736500000000000000000000000000000000000000000000008152506008600060098152602001908152602001600020908051906020019062000682929190620007a9565b506040518060400160405280600581526020017f677261737300000000000000000000000000000000000000000000000000000081525060096000600781526020019081526020016000209080519060200190620006e2929190620007a9565b506040518060400160405280600481526020017f66697265000000000000000000000000000000000000000000000000000000008152506009600060088152602001908152602001600020908051906020019062000742929190620007a9565b506040518060400160405280600581526020017f776174657200000000000000000000000000000000000000000000000000000081525060096000600981526020019081526020016000209080519060200190620007a2929190620007a9565b5062000858565b828054600181600116156101000203166002900490600052602060002090601f016020900481019282601f10620007ec57805160ff19168380011785556200081d565b828001600101855582156200081d579182015b828111156200081c578251825591602001919060010190620007ff565b5b5090506200082c919062000830565b5090565b6200085591905b808211156200085157600081600090555060010162000837565b5090565b90565b611fd980620008686000396000f3fe608060405234801561001057600080fd5b50600436106101005760003560e01c8063a032974711610097578063d1cc7b3711610066578063d1cc7b3714610845578063e46237c3146108ec578063f2fde38b14610924578063f330d7571461096857610100565b8063a0329747146104dc578063a85cf30a14610597578063c39cbef114610794578063ccf670f81461081757610100565b8063715018a6116100d3578063715018a6146102bd57806385831079146102c75780638da5cb5b146104705780638f32d59b146104ba57610100565b80630ce90ec2146101055780632f7467b31461013357806335beeb27146101a15780636136779e1461023a575b600080fd5b6101316004803603602081101561011b57600080fd5b8101908080359060200190929190505050610a0f565b005b61015f6004803603602081101561014957600080fd5b8101908080359060200190929190505050610c48565b604051808273ffffffffffffffffffffffffffffffffffffffff1673ffffffffffffffffffffffffffffffffffffffff16815260200191505060405180910390f35b6101e3600480360360208110156101b757600080fd5b81019080803573ffffffffffffffffffffffffffffffffffffffff169060200190929190505050610c7b565b6040518080602001828103825283818151815260200191508051906020019060200280838360005b8381101561022657808201518184015260208101905061020b565b505050509050019250505060405180910390f35b6102bb6004803603604081101561025057600080fd5b81019080803590602001909291908035906020019064010000000081111561027757600080fd5b82018360208201111561028957600080fd5b803590602001918460018302840111640100000000831117156102ab57600080fd5b9091929391929390505050610da8565b005b6102c5610e78565b005b6102f3600480360360208110156102dd57600080fd5b8101908080359060200190929190505050610f48565b604051808060200180602001806020018a815260200189815260200188815260200187815260200186815260200185815260200184810384528d818151815260200191508051906020019080838360005b8381101561035f578082015181840152602081019050610344565b50505050905090810190601f16801561038c5780820380516001836020036101000a031916815260200191505b5084810383528c818151815260200191508051906020019080838360005b838110156103c55780820151818401526020810190506103aa565b50505050905090810190601f1680156103f25780820380516001836020036101000a031916815260200191505b5084810382528b818151815260200191508051906020019080838360005b8381101561042b578082015181840152602081019050610410565b50505050905090810190601f1680156104585780820380516001836020036101000a031916815260200191505b509c5050505050505050505050505060405180910390f35b61047861116b565b604051808273ffffffffffffffffffffffffffffffffffffffff1673ffffffffffffffffffffffffffffffffffffffff16815260200191505060405180910390f35b6104c2611194565b604051808215151515815260200191505060405180910390f35b610595600480360360208110156104f257600080fd5b810190808035906020019064010000000081111561050f57600080fd5b82018360208201111561052157600080fd5b8035906020019184600183028401116401000000008311171561054357600080fd5b91908080601f016020809104026020016040519081016040528093929190818152602001838380828437600081840152601f19601f8201169050808301925050505050505091929192905050506111eb565b005b610792600480360360a08110156105ad57600080fd5b81019080803590602001906401000000008111156105ca57600080fd5b8201836020820111156105dc57600080fd5b803590602001918460018302840111640100000000831117156105fe57600080fd5b91908080601f016020809104026020016040519081016040528093929190818152602001838380828437600081840152601f19601f8201169050808301925050505050505091929192908035906020019064010000000081111561066157600080fd5b82018360208201111561067357600080fd5b8035906020019184600183028401116401000000008311171561069557600080fd5b91908080601f016020809104026020016040519081016040528093929190818152602001838380828437600081840152601f19601f82011690508083019250505050505050919291929080359060200190929190803590602001909291908035906020019064010000000081111561070c57600080fd5b82018360208201111561071e57600080fd5b8035906020019184600183028401116401000000008311171561074057600080fd5b91908080601f016020809104026020016040519081016040528093929190818152602001838380828437600081840152601f19601f8201169050808301925050505050505091929192905050506113d0565b005b610815600480360360408110156107aa57600080fd5b8101908080359060200190929190803590602001906401000000008111156107d157600080fd5b8201836020820111156107e357600080fd5b8035906020019184600183028401116401000000008311171561080557600080fd5b9091929391929390505050611737565b005b6108436004803603602081101561082d57600080fd5b810190808035906020019092919050505061176a565b005b6108716004803603602081101561085b57600080fd5b8101908080359060200190929190505050611785565b6040518080602001828103825283818151815260200191508051906020019080838360005b838110156108b1578082015181840152602081019050610896565b50505050905090810190601f1680156108de5780820380516001836020036101000a031916815260200191505b509250505060405180910390f35b6109226004803603604081101561090257600080fd5b810190808035906020019092919080359060200190929190505050611835565b005b6109666004803603602081101561093a57600080fd5b81019080803573ffffffffffffffffffffffffffffffffffffffff16906020019092919050505061185c565b005b6109946004803603602081101561097e57600080fd5b8101908080359060200190929190505050611879565b6040518080602001828103825283818151815260200191508051906020019080838360005b838110156109d45780820151818401526020810190506109b9565b50505050905090810190601f168015610a015780820380516001836020036101000a031916815260200191505b509250505060405180910390f35b806006600082815260200190815260200160002060009054906101000a900473ffffffffffffffffffffffffffffffffffffffff1673ffffffffffffffffffffffffffffffffffffffff163373ffffffffffffffffffffffffffffffffffffffff1614610a7b57600080fd5b600060058381548110610a8a57fe5b906000526020600020906009020160060154905060058381548110610aab57fe5b9060005260206000209060090201600601600081548092919060010191905055506005808481548110610ada57fe5b90600052602060002090600902016006015410158015610afa5750600581105b80610b305750600a60058481548110610b0f57fe5b90600052602060002090600902016006015410158015610b2f5750600a81105b5b15610b3f57610b3e83611929565b5b7f81f09a6a68733e67fe0fca474c21d653f8b2120cedb80909c5fe331bf54b0a808360058581548110610b6e57fe5b90600052602060002090600902016005015460058681548110610b8d57fe5b90600052602060002090600902016000016040518084815260200183815260200180602001828103825283818154600181600116156101000203166002900481526020019150805460018160011615610100020316600290048015610c335780601f10610c0857610100808354040283529160200191610c33565b820191906000526020600020905b815481529060010190602001808311610c1657829003601f168201915b505094505050505060405180910390a1505050565b60066020528060005260406000206000915054906101000a900473ffffffffffffffffffffffffffffffffffffffff1681565b606080600760008473ffffffffffffffffffffffffffffffffffffffff1673ffffffffffffffffffffffffffffffffffffffff16815260200190815260200160002054604051908082528060200260200182016040528015610cec5781602001602082028038833980820191505090505b509050600080905060008090505b600580549050811015610d9d578473ffffffffffffffffffffffffffffffffffffffff166006600083815260200190815260200160002060009054906101000a900473ffffffffffffffffffffffffffffffffffffffff1673ffffffffffffffffffffffffffffffffffffffff161415610d905780838381518110610d7b57fe5b60200260200101818152505081806001019250505b8080600101915050610cfa565b508192505050919050565b6002838160058281548110610db957fe5b9060005260206000209060090201600601541015610dd657600080fd5b846006600082815260200190815260200160002060009054906101000a900473ffffffffffffffffffffffffffffffffffffffff1673ffffffffffffffffffffffffffffffffffffffff163373ffffffffffffffffffffffffffffffffffffffff1614610e4257600080fd5b848460058881548110610e5157fe5b90600052602060002090600902016001019190610e6f929190611df8565b50505050505050565b610e80611194565b610e8957600080fd5b600073ffffffffffffffffffffffffffffffffffffffff166000809054906101000a900473ffffffffffffffffffffffffffffffffffffffff1673ffffffffffffffffffffffffffffffffffffffff167f8be0079c531659141344cd1fd0a4f28419497f9722a3daafe3b4186f6b6457e060405160405180910390a360008060006101000a81548173ffffffffffffffffffffffffffffffffffffffff021916908373ffffffffffffffffffffffffffffffffffffffff160217905550565b60058181548110610f5557fe5b9060005260206000209060090201600091509050806000018054600181600116156101000203166002900480601f0160208091040260200160405190810160405280929190818152602001828054600181600116156101000203166002900480156110015780601f10610fd657610100808354040283529160200191611001565b820191906000526020600020905b815481529060010190602001808311610fe457829003601f168201915b505050505090806001018054600181600116156101000203166002900480601f01602080910402602001604051908101604052809291908181526020018280546001816001161561010002031660029004801561109f5780601f106110745761010080835404028352916020019161109f565b820191906000526020600020905b81548152906001019060200180831161108257829003601f168201915b505050505090806002018054600181600116156101000203166002900480601f01602080910402602001604051908101604052809291908181526020018280546001816001161561010002031660029004801561113d5780601f106111125761010080835404028352916020019161113d565b820191906000526020600020905b81548152906001019060200180831161112057829003601f168201915b5050505050908060030154908060040154908060050154908060060154908060070154908060080154905089565b60008060009054906101000a900473ffffffffffffffffffffffffffffffffffffffff16905090565b60008060009054906101000a900473ffffffffffffffffffffffffffffffffffffffff1673ffffffffffffffffffffffffffffffffffffffff163373ffffffffffffffffffffffffffffffffffffffff1614905090565b6005600760003373ffffffffffffffffffffffffffffffffffffffff1673ffffffffffffffffffffffffffffffffffffffff16815260200190815260200160002054111561123857600080fd5b60006112446003611bc7565b90506060600860006001840181526020019081526020016000208054600181600116156101000203166002900480601f0160208091040260200160405190810160405280929190818152602001828054600181600116156101000203166002900480156112f25780601f106112c7576101008083540402835291602001916112f2565b820191906000526020600020905b8154815290600101906020018083116112d557829003601f168201915b505050505090506060600960006001850181526020019081526020016000208054600181600116156101000203166002900480601f0160208091040260200160405190810160405280929190818152602001828054600181600116156101000203166002900480156113a55780601f1061137a576101008083540402835291602001916113a5565b820191906000526020600020905b81548152906001019060200180831161138857829003601f168201915b5050505050905060006113b785611c56565b90506113c983868360018801866113d0565b5050505050565b60006001600560405180610120016040528089815260200188815260200185815260200160008152602001878152602001868152602001600181526020014281526020016064815250908060018154018082558091505090600182039060005260206000209060090201600090919290919091506000820151816000019080519060200190611460929190611e78565b50602082015181600101908051906020019061147d929190611e78565b50604082015181600201908051906020019061149a929190611e78565b50606082015181600301556080820151816004015560a0820151816005015560c0820151816006015560e0820151816007015561010082015181600801555050039050336006600083815260200190815260200160002060006101000a81548173ffffffffffffffffffffffffffffffffffffffff021916908373ffffffffffffffffffffffffffffffffffffffff160217905550600760003373ffffffffffffffffffffffffffffffffffffffff1673ffffffffffffffffffffffffffffffffffffffff16815260200190815260200160002060008154809291906001019190505550806005828154811061158c57fe5b9060005260206000209060090201600301819055507f44b87d4ecbe873f372cc7eaf2e0837852b94f61a28046c0816d8060c840679b881878787878760405180878152602001806020018060200186815260200185815260200180602001848103845289818151815260200191508051906020019080838360005b83811015611622578082015181840152602081019050611607565b50505050905090810190601f16801561164f5780820380516001836020036101000a031916815260200191505b50848103835288818151815260200191508051906020019080838360005b8381101561168857808201518184015260208101905061166d565b50505050905090810190601f1680156116b55780820380516001836020036101000a031916815260200191505b50848103825285818151815260200191508051906020019080838360005b838110156116ee5780820151818401526020810190506116d3565b50505050905090810190601f16801561171b5780820380516001836020036101000a031916815260200191505b50995050505050505050505060405180910390a1505050505050565b81816005858154811061174657fe5b90600052602060002090600902016000019190611764929190611df8565b50505050565b611772611194565b61177b57600080fd5b80600a8190555050565b60086020528060005260406000206000915090508054600181600116156101000203166002900480601f01602080910402602001604051908101604052809291908181526020018280546001816001161561010002031660029004801561182d5780601f106118025761010080835404028352916020019161182d565b820191906000526020600020905b81548152906001019060200180831161181057829003601f168201915b505050505081565b806005838154811061184357fe5b9060005260206000209060090201600501819055505050565b611864611194565b61186d57600080fd5b61187681611d00565b50565b60096020528060005260406000206000915090508054600181600116156101000203166002900480601f0160208091040260200160405190810160405280929190818152602001828054600181600116156101000203166002900480156119215780601f106118f657610100808354040283529160200191611921565b820191906000526020600020905b81548152906001019060200180831161190457829003601f168201915b505050505081565b60606005828154811061193857fe5b90600052602060002090600902016000018054600181600116156101000203166002900480601f0160208091040260200160405190810160405280929190818152602001828054600181600116156101000203166002900480156119dd5780601f106119b2576101008083540402835291602001916119dd565b820191906000526020600020905b8154815290600101906020018083116119c057829003601f168201915b505050505090506003600583815481106119f357fe5b9060005260206000209060090201600501600082825401925050819055506008600060058481548110611a2257fe5b906000526020600020906009020160050154815260200190815260200160002060058381548110611a4f57fe5b90600052602060002090600902016000019080546001816001161561010002031660029004611a7f929190611ef8565b507fad49ccb1dfebd145165559ec561b1746a4443519cad67f36273ba0a952b2df438160058481548110611aaf57fe5b9060005260206000209060090201600001604051808060200180602001838103835285818151815260200191508051906020019080838360005b83811015611b04578082015181840152602081019050611ae9565b50505050905090810190601f168015611b315780820380516001836020036101000a031916815260200191505b50838103825284818154600181600116156101000203166002900481526020019150805460018160011615610100020316600290048015611bb35780601f10611b8857610100808354040283529160200191611bb3565b820191906000526020600020905b815481529060010190602001808311611b9657829003601f168201915b505094505050505060405180910390a15050565b6000600160008154809291906001019190505550814233600154604051602001808481526020018373ffffffffffffffffffffffffffffffffffffffff1673ffffffffffffffffffffffffffffffffffffffff1660601b815260140182815260200193505050506040516020818303038152906040528051906020012060001c81611c4e57fe5b069050919050565b600080826001546040516020018083805190602001908083835b60208310611c935780518252602082019150602081019050602083039250611c70565b6001836020036101000a038019825116818451168082178552505050505050905001828152602001925050506040516020818303038152906040528051906020012060001c90506001600081548092919060010191905055506003548181611cf757fe5b06915050919050565b600073ffffffffffffffffffffffffffffffffffffffff168173ffffffffffffffffffffffffffffffffffffffff161415611d3a57600080fd5b8073ffffffffffffffffffffffffffffffffffffffff166000809054906101000a900473ffffffffffffffffffffffffffffffffffffffff1673ffffffffffffffffffffffffffffffffffffffff167f8be0079c531659141344cd1fd0a4f28419497f9722a3daafe3b4186f6b6457e060405160405180910390a3806000806101000a81548173ffffffffffffffffffffffffffffffffffffffff021916908373ffffffffffffffffffffffffffffffffffffffff16021790555050565b828054600181600116156101000203166002900490600052602060002090601f016020900481019282601f10611e3957803560ff1916838001178555611e67565b82800160010185558215611e67579182015b82811115611e66578235825591602001919060010190611e4b565b5b509050611e749190611f7f565b5090565b828054600181600116156101000203166002900490600052602060002090601f016020900481019282601f10611eb957805160ff1916838001178555611ee7565b82800160010185558215611ee7579182015b82811115611ee6578251825591602001919060010190611ecb565b5b509050611ef49190611f7f565b5090565b828054600181600116156101000203166002900490600052602060002090601f016020900481019282601f10611f315780548555611f6e565b82800160010185558215611f6e57600052602060002091601f016020900482015b82811115611f6d578254825591600101919060010190611f52565b5b509050611f7b9190611f7f565b5090565b611fa191905b80821115611f9d576000816000905550600101611f85565b5090565b9056fea265627a7a723158209c03f39495a6068eb8b1d4f544bbac4ab206bb991320241e4e63c356eea7d37364736f6c63430005100032",
  "source": "pragma solidity >=0.5.0 <0.6.0;\n\nimport \"./PokemonFactory.sol\";\n\ncontract PokemonHelper is PokemonFactory {\n\n  uint levelUpFee = 0.001 ether;\n\n  event EvolvedPokemon(string previousName, string currentName);\n  event LeveledUp(uint pokemonId, uint pokedexNum, string name);\n\n  modifier onlyOwnerOf(uint _pokemonId) {\n    require(msg.sender == pokemonToOwner[_pokemonId]);\n    _;\n  }\n\n  modifier notOwnerOf(uint _pokemonId) {\n    require(msg.sender != pokemonToOwner[_pokemonId]);\n    _;\n  }\n\n  modifier aboveLevel(uint _level, uint _pokemonId) {\n    require(pokemons[_pokemonId].level >= _level);\n    _;\n  }\n\n  function setLevelUpFee(uint _fee) external onlyOwner {\n    levelUpFee = _fee;\n  }\n\n  function evolvePokemon(uint _pokemonId) internal {\n    string memory previousName = pokemons[_pokemonId].name;\n    pokemons[_pokemonId].pokedexNum += 3;\n    pokemons[_pokemonId].name = pokedexNumToName[pokemons[_pokemonId].pokedexNum];\n    emit EvolvedPokemon(previousName, pokemons[_pokemonId].name);\n  }\n\n  function levelUp(uint _pokemonId) external onlyOwnerOf(_pokemonId){\n    uint previousLevel = pokemons[_pokemonId].level;\n    //require(msg.value == levelUpFee);\n    pokemons[_pokemonId].level++;\n    if (pokemons[_pokemonId].level >=5 && previousLevel <5 || pokemons[_pokemonId].level >=10 && previousLevel <10) {\n      evolvePokemon(_pokemonId);\n    }\n    emit LeveledUp(_pokemonId, pokemons[_pokemonId].pokedexNum, pokemons[_pokemonId].name);\n  }\n\n  function changeNickname(uint _pokemonId, string calldata _newNickname) external aboveLevel(2, _pokemonId) onlyOwnerOf(_pokemonId) {\n    pokemons[_pokemonId].nickname = _newNickname;\n  }\n   function changeName(uint _pokemonId, string calldata _newName) external {\n    pokemons[_pokemonId].name = _newName;\n  }\n\n  function changePokedexNum(uint _pokemonId, uint _newPokedexNum) external {\n    pokemons[_pokemonId].pokedexNum = _newPokedexNum;\n  }\n\n}",
  "sourcePath": "/Users/timothyongliangli/Desktop/CryptoPokemon/contracts/PokemonHelper.sol",
  "compiler": {
    "name": "solc",
    "version": "0.5.16+commit.9c3226ce.Emscripten.clang"
  },
  "schemaVersion": "3.3.0",
  "updatedAt": "2020-10-30T20:25:51.782Z",
  "devdoc": {
    "methods": {
      "isOwner()": {
        "return": "true if `msg.sender` is the owner of the contract."
      },
      "owner()": {
        "return": "the address of the owner."
      },
      "renounceOwnership()": {
        "details": "Allows the current owner to relinquish control of the contract."
      },
      "transferOwnership(address)": {
        "details": "Allows the current owner to transfer control of the contract to a newOwner.",
        "params": {
          "newOwner": "The address to transfer ownership to."
        }
      }
    }
  },
  "userdoc": {
    "methods": {
      "renounceOwnership()": {
        "notice": "Renouncing to ownership will leave the contract without an owner. It will not be possible to call the functions with the `onlyOwner` modifier anymore."
      }
    }
  }
}