{
  "contractName": "PokemonFactory",
  "abi": [
    {
      "inputs": [],
      "payable": false,
      "stateMutability": "nonpayable",
      "type": "constructor"
    },
    {
      "anonymous": false,
      "inputs": [
        {
          "indexed": false,
          "internalType": "uint256",
          "name": "id",
          "type": "uint256"
        },
        {
          "indexed": false,
          "internalType": "string",
          "name": "name",
          "type": "string"
        },
        {
          "indexed": false,
          "internalType": "string",
          "name": "nickname",
          "type": "string"
        },
        {
          "indexed": false,
          "internalType": "uint256",
          "name": "dna",
          "type": "uint256"
        },
        {
          "indexed": false,
          "internalType": "uint256",
          "name": "pokedexNum",
          "type": "uint256"
        },
        {
          "indexed": false,
          "internalType": "string",
          "name": "stype",
          "type": "string"
        }
      ],
      "name": "NewPokemon",
      "type": "event"
    },
    {
      "anonymous": false,
      "inputs": [
        {
          "indexed": true,
          "internalType": "address",
          "name": "previousOwner",
          "type": "address"
        },
        {
          "indexed": true,
          "internalType": "address",
          "name": "newOwner",
          "type": "address"
        }
      ],
      "name": "OwnershipTransferred",
      "type": "event"
    },
    {
      "constant": true,
      "inputs": [],
      "name": "isOwner",
      "outputs": [
        {
          "internalType": "bool",
          "name": "",
          "type": "bool"
        }
      ],
      "payable": false,
      "stateMutability": "view",
      "type": "function"
    },
    {
      "constant": true,
      "inputs": [],
      "name": "owner",
      "outputs": [
        {
          "internalType": "address",
          "name": "",
          "type": "address"
        }
      ],
      "payable": false,
      "stateMutability": "view",
      "type": "function"
    },
    {
      "constant": true,
      "inputs": [
        {
          "internalType": "uint256",
          "name": "",
          "type": "uint256"
        }
      ],
      "name": "pokedexNumToName",
      "outputs": [
        {
          "internalType": "string",
          "name": "",
          "type": "string"
        }
      ],
      "payable": false,
      "stateMutability": "view",
      "type": "function"
    },
    {
      "constant": true,
      "inputs": [
        {
          "internalType": "uint256",
          "name": "",
          "type": "uint256"
        }
      ],
      "name": "pokemonNumToType",
      "outputs": [
        {
          "internalType": "string",
          "name": "",
          "type": "string"
        }
      ],
      "payable": false,
      "stateMutability": "view",
      "type": "function"
    },
    {
      "constant": true,
      "inputs": [
        {
          "internalType": "uint256",
          "name": "",
          "type": "uint256"
        }
      ],
      "name": "pokemonToOwner",
      "outputs": [
        {
          "internalType": "address",
          "name": "",
          "type": "address"
        }
      ],
      "payable": false,
      "stateMutability": "view",
      "type": "function"
    },
    {
      "constant": true,
      "inputs": [
        {
          "internalType": "uint256",
          "name": "",
          "type": "uint256"
        }
      ],
      "name": "pokemons",
      "outputs": [
        {
          "internalType": "string",
          "name": "name",
          "type": "string"
        },
        {
          "internalType": "string",
          "name": "nickname",
          "type": "string"
        },
        {
          "internalType": "string",
          "name": "stype",
          "type": "string"
        },
        {
          "internalType": "uint256",
          "name": "id",
          "type": "uint256"
        },
        {
          "internalType": "uint256",
          "name": "dna",
          "type": "uint256"
        },
        {
          "internalType": "uint256",
          "name": "pokedexNum",
          "type": "uint256"
        },
        {
          "internalType": "uint256",
          "name": "level",
          "type": "uint256"
        },
        {
          "internalType": "uint256",
          "name": "readyTime",
          "type": "uint256"
        },
        {
          "internalType": "uint256",
          "name": "health",
          "type": "uint256"
        }
      ],
      "payable": false,
      "stateMutability": "view",
      "type": "function"
    },
    {
      "constant": false,
      "inputs": [],
      "name": "renounceOwnership",
      "outputs": [],
      "payable": false,
      "stateMutability": "nonpayable",
      "type": "function"
    },
    {
      "constant": false,
      "inputs": [
        {
          "internalType": "address",
          "name": "newOwner",
          "type": "address"
        }
      ],
      "name": "transferOwnership",
      "outputs": [],
      "payable": false,
      "stateMutability": "nonpayable",
      "type": "function"
    },
    {
      "constant": false,
      "inputs": [
        {
          "internalType": "string",
          "name": "_name",
          "type": "string"
        },
        {
          "internalType": "string",
          "name": "_nickname",
          "type": "string"
        },
        {
          "internalType": "uint256",
          "name": "_dna",
          "type": "uint256"
        },
        {
          "internalType": "uint256",
          "name": "_pokedexNum",
          "type": "uint256"
        },
        {
          "internalType": "string",
          "name": "_stype",
          "type": "string"
        }
      ],
      "name": "_createPokemon",
      "outputs": [],
      "payable": false,
      "stateMutability": "nonpayable",
      "type": "function"
    },
    {
      "constant": false,
      "inputs": [
        {
          "internalType": "address",
          "name": "_owner",
          "type": "address"
        }
      ],
      "name": "getPokemonsByOwner",
      "outputs": [
        {
          "internalType": "uint256[]",
          "name": "",
          "type": "uint256[]"
        }
      ],
      "payable": false,
      "stateMutability": "nonpayable",
      "type": "function"
    },
    {
      "constant": false,
      "inputs": [
        {
          "internalType": "string",
          "name": "_nickname",
          "type": "string"
        }
      ],
      "name": "createRandomPokemon",
      "outputs": [],
      "payable": false,
      "stateMutability": "nonpayable",
      "type": "function"
    }
  ],
  "bytecode": "0x608060405260006001556010600255600254600a0a600355601e6004553480156200002957600080fd5b50336000806101000a81548173ffffffffffffffffffffffffffffffffffffffff021916908373ffffffffffffffffffffffffffffffffffffffff1602179055506000809054906101000a900473ffffffffffffffffffffffffffffffffffffffff1673ffffffffffffffffffffffffffffffffffffffff16600073ffffffffffffffffffffffffffffffffffffffff167f8be0079c531659141344cd1fd0a4f28419497f9722a3daafe3b4186f6b6457e060405160405180910390a36040518060400160405280600981526020017f62756c62617361757200000000000000000000000000000000000000000000008152506008600060018152602001908152602001600020908051906020019062000145929190620007ac565b506040518060400160405280600a81526020017f636861726d616e6465720000000000000000000000000000000000000000000081525060086000600281526020019081526020016000209080519060200190620001a5929190620007ac565b506040518060400160405280600881526020017f7371756972746c650000000000000000000000000000000000000000000000008152506008600060038152602001908152602001600020908051906020019062000205929190620007ac565b506040518060400160405280600581526020017f67726173730000000000000000000000000000000000000000000000000000008152506009600060018152602001908152602001600020908051906020019062000265929190620007ac565b506040518060400160405280600481526020017f666972650000000000000000000000000000000000000000000000000000000081525060096000600281526020019081526020016000209080519060200190620002c5929190620007ac565b506040518060400160405280600581526020017f77617465720000000000000000000000000000000000000000000000000000008152506009600060038152602001908152602001600020908051906020019062000325929190620007ac565b506040518060400160405280600781526020017f69767973617572000000000000000000000000000000000000000000000000008152506008600060048152602001908152602001600020908051906020019062000385929190620007ac565b506040518060400160405280600a81526020017f636861726d656c656f6e0000000000000000000000000000000000000000000081525060086000600581526020019081526020016000209080519060200190620003e5929190620007ac565b506040518060400160405280600981526020017f776172746f72746c6500000000000000000000000000000000000000000000008152506008600060068152602001908152602001600020908051906020019062000445929190620007ac565b506040518060400160405280600581526020017f677261737300000000000000000000000000000000000000000000000000000081525060096000600481526020019081526020016000209080519060200190620004a5929190620007ac565b506040518060400160405280600481526020017f66697265000000000000000000000000000000000000000000000000000000008152506009600060058152602001908152602001600020908051906020019062000505929190620007ac565b506040518060400160405280600581526020017f77617465720000000000000000000000000000000000000000000000000000008152506009600060068152602001908152602001600020908051906020019062000565929190620007ac565b506040518060400160405280600881526020017f76656e757361757200000000000000000000000000000000000000000000000081525060086000600781526020019081526020016000209080519060200190620005c5929190620007ac565b506040518060400160405280600981526020017f63686172697a61726400000000000000000000000000000000000000000000008152506008600060088152602001908152602001600020908051906020019062000625929190620007ac565b506040518060400160405280600981526020017f626c6173746f69736500000000000000000000000000000000000000000000008152506008600060098152602001908152602001600020908051906020019062000685929190620007ac565b506040518060400160405280600581526020017f677261737300000000000000000000000000000000000000000000000000000081525060096000600781526020019081526020016000209080519060200190620006e5929190620007ac565b506040518060400160405280600481526020017f66697265000000000000000000000000000000000000000000000000000000008152506009600060088152602001908152602001600020908051906020019062000745929190620007ac565b506040518060400160405280600581526020017f776174657200000000000000000000000000000000000000000000000000000081525060096000600981526020019081526020016000209080519060200190620007a5929190620007ac565b506200085b565b828054600181600116156101000203166002900490600052602060002090601f016020900481019282601f10620007ef57805160ff191683800117855562000820565b8280016001018555821562000820579182015b828111156200081f57825182559160200191906001019062000802565b5b5090506200082f919062000833565b5090565b6200085891905b80821115620008545760008160009055506001016200083a565b5090565b90565b6116c5806200086b6000396000f3fe608060405234801561001057600080fd5b50600436106100a95760003560e01c80638f32d59b116100715780638f32d59b146103b2578063a0329747146103d4578063a85cf30a1461048f578063d1cc7b371461068c578063f2fde38b14610733578063f330d75714610777576100a9565b80632f7467b3146100ae57806335beeb271461011c578063715018a6146101b557806385831079146101bf5780638da5cb5b14610368575b600080fd5b6100da600480360360208110156100c457600080fd5b810190808035906020019092919050505061081e565b604051808273ffffffffffffffffffffffffffffffffffffffff1673ffffffffffffffffffffffffffffffffffffffff16815260200191505060405180910390f35b61015e6004803603602081101561013257600080fd5b81019080803573ffffffffffffffffffffffffffffffffffffffff169060200190929190505050610851565b6040518080602001828103825283818151815260200191508051906020019060200280838360005b838110156101a1578082015181840152602081019050610186565b505050509050019250505060405180910390f35b6101bd61097e565b005b6101eb600480360360208110156101d557600080fd5b8101908080359060200190929190505050610a4e565b604051808060200180602001806020018a815260200189815260200188815260200187815260200186815260200185815260200184810384528d818151815260200191508051906020019080838360005b8381101561025757808201518184015260208101905061023c565b50505050905090810190601f1680156102845780820380516001836020036101000a031916815260200191505b5084810383528c818151815260200191508051906020019080838360005b838110156102bd5780820151818401526020810190506102a2565b50505050905090810190601f1680156102ea5780820380516001836020036101000a031916815260200191505b5084810382528b818151815260200191508051906020019080838360005b83811015610323578082015181840152602081019050610308565b50505050905090810190601f1680156103505780820380516001836020036101000a031916815260200191505b509c5050505050505050505050505060405180910390f35b610370610c71565b604051808273ffffffffffffffffffffffffffffffffffffffff1673ffffffffffffffffffffffffffffffffffffffff16815260200191505060405180910390f35b6103ba610c9a565b604051808215151515815260200191505060405180910390f35b61048d600480360360208110156103ea57600080fd5b810190808035906020019064010000000081111561040757600080fd5b82018360208201111561041957600080fd5b8035906020019184600183028401116401000000008311171561043b57600080fd5b91908080601f016020809104026020016040519081016040528093929190818152602001838380828437600081840152601f19601f820116905080830192505050505050509192919290505050610cf1565b005b61068a600480360360a08110156104a557600080fd5b81019080803590602001906401000000008111156104c257600080fd5b8201836020820111156104d457600080fd5b803590602001918460018302840111640100000000831117156104f657600080fd5b91908080601f016020809104026020016040519081016040528093929190818152602001838380828437600081840152601f19601f8201169050808301925050505050505091929192908035906020019064010000000081111561055957600080fd5b82018360208201111561056b57600080fd5b8035906020019184600183028401116401000000008311171561058d57600080fd5b91908080601f016020809104026020016040519081016040528093929190818152602001838380828437600081840152601f19601f82011690508083019250505050505050919291929080359060200190929190803590602001909291908035906020019064010000000081111561060457600080fd5b82018360208201111561061657600080fd5b8035906020019184600183028401116401000000008311171561063857600080fd5b91908080601f016020809104026020016040519081016040528093929190818152602001838380828437600081840152601f19601f820116905080830192505050505050509192919290505050610ed6565b005b6106b8600480360360208110156106a257600080fd5b810190808035906020019092919050505061123d565b6040518080602001828103825283818151815260200191508051906020019080838360005b838110156106f85780820151818401526020810190506106dd565b50505050905090810190601f1680156107255780820380516001836020036101000a031916815260200191505b509250505060405180910390f35b6107756004803603602081101561074957600080fd5b81019080803573ffffffffffffffffffffffffffffffffffffffff1690602001909291905050506112ed565b005b6107a36004803603602081101561078d57600080fd5b810190808035906020019092919050505061130a565b6040518080602001828103825283818151815260200191508051906020019080838360005b838110156107e35780820151818401526020810190506107c8565b50505050905090810190601f1680156108105780820380516001836020036101000a031916815260200191505b509250505060405180910390f35b60066020528060005260406000206000915054906101000a900473ffffffffffffffffffffffffffffffffffffffff1681565b606080600760008473ffffffffffffffffffffffffffffffffffffffff1673ffffffffffffffffffffffffffffffffffffffff168152602001908152602001600020546040519080825280602002602001820160405280156108c25781602001602082028038833980820191505090505b509050600080905060008090505b600580549050811015610973578473ffffffffffffffffffffffffffffffffffffffff166006600083815260200190815260200160002060009054906101000a900473ffffffffffffffffffffffffffffffffffffffff1673ffffffffffffffffffffffffffffffffffffffff161415610966578083838151811061095157fe5b60200260200101818152505081806001019250505b80806001019150506108d0565b508192505050919050565b610986610c9a565b61098f57600080fd5b600073ffffffffffffffffffffffffffffffffffffffff166000809054906101000a900473ffffffffffffffffffffffffffffffffffffffff1673ffffffffffffffffffffffffffffffffffffffff167f8be0079c531659141344cd1fd0a4f28419497f9722a3daafe3b4186f6b6457e060405160405180910390a360008060006101000a81548173ffffffffffffffffffffffffffffffffffffffff021916908373ffffffffffffffffffffffffffffffffffffffff160217905550565b60058181548110610a5b57fe5b9060005260206000209060090201600091509050806000018054600181600116156101000203166002900480601f016020809104026020016040519081016040528092919081815260200182805460018160011615610100020316600290048015610b075780601f10610adc57610100808354040283529160200191610b07565b820191906000526020600020905b815481529060010190602001808311610aea57829003601f168201915b505050505090806001018054600181600116156101000203166002900480601f016020809104026020016040519081016040528092919081815260200182805460018160011615610100020316600290048015610ba55780601f10610b7a57610100808354040283529160200191610ba5565b820191906000526020600020905b815481529060010190602001808311610b8857829003601f168201915b505050505090806002018054600181600116156101000203166002900480601f016020809104026020016040519081016040528092919081815260200182805460018160011615610100020316600290048015610c435780601f10610c1857610100808354040283529160200191610c43565b820191906000526020600020905b815481529060010190602001808311610c2657829003601f168201915b5050505050908060030154908060040154908060050154908060060154908060070154908060080154905089565b60008060009054906101000a900473ffffffffffffffffffffffffffffffffffffffff16905090565b60008060009054906101000a900473ffffffffffffffffffffffffffffffffffffffff1673ffffffffffffffffffffffffffffffffffffffff163373ffffffffffffffffffffffffffffffffffffffff1614905090565b6005600760003373ffffffffffffffffffffffffffffffffffffffff1673ffffffffffffffffffffffffffffffffffffffff168152602001908152602001600020541115610d3e57600080fd5b6000610d4a60036113ba565b90506060600860006001840181526020019081526020016000208054600181600116156101000203166002900480601f016020809104026020016040519081016040528092919081815260200182805460018160011615610100020316600290048015610df85780601f10610dcd57610100808354040283529160200191610df8565b820191906000526020600020905b815481529060010190602001808311610ddb57829003601f168201915b505050505090506060600960006001850181526020019081526020016000208054600181600116156101000203166002900480601f016020809104026020016040519081016040528092919081815260200182805460018160011615610100020316600290048015610eab5780601f10610e8057610100808354040283529160200191610eab565b820191906000526020600020905b815481529060010190602001808311610e8e57829003601f168201915b505050505090506000610ebd85611449565b9050610ecf8386836001880186610ed6565b5050505050565b60006001600560405180610120016040528089815260200188815260200185815260200160008152602001878152602001868152602001600181526020014281526020016064815250908060018154018082558091505090600182039060005260206000209060090201600090919290919091506000820151816000019080519060200190610f669291906115eb565b506020820151816001019080519060200190610f839291906115eb565b506040820151816002019080519060200190610fa09291906115eb565b50606082015181600301556080820151816004015560a0820151816005015560c0820151816006015560e0820151816007015561010082015181600801555050039050336006600083815260200190815260200160002060006101000a81548173ffffffffffffffffffffffffffffffffffffffff021916908373ffffffffffffffffffffffffffffffffffffffff160217905550600760003373ffffffffffffffffffffffffffffffffffffffff1673ffffffffffffffffffffffffffffffffffffffff16815260200190815260200160002060008154809291906001019190505550806005828154811061109257fe5b9060005260206000209060090201600301819055507f44b87d4ecbe873f372cc7eaf2e0837852b94f61a28046c0816d8060c840679b881878787878760405180878152602001806020018060200186815260200185815260200180602001848103845289818151815260200191508051906020019080838360005b8381101561112857808201518184015260208101905061110d565b50505050905090810190601f1680156111555780820380516001836020036101000a031916815260200191505b50848103835288818151815260200191508051906020019080838360005b8381101561118e578082015181840152602081019050611173565b50505050905090810190601f1680156111bb5780820380516001836020036101000a031916815260200191505b50848103825285818151815260200191508051906020019080838360005b838110156111f45780820151818401526020810190506111d9565b50505050905090810190601f1680156112215780820380516001836020036101000a031916815260200191505b50995050505050505050505060405180910390a1505050505050565b60086020528060005260406000206000915090508054600181600116156101000203166002900480601f0160208091040260200160405190810160405280929190818152602001828054600181600116156101000203166002900480156112e55780601f106112ba576101008083540402835291602001916112e5565b820191906000526020600020905b8154815290600101906020018083116112c857829003601f168201915b505050505081565b6112f5610c9a565b6112fe57600080fd5b611307816114f3565b50565b60096020528060005260406000206000915090508054600181600116156101000203166002900480601f0160208091040260200160405190810160405280929190818152602001828054600181600116156101000203166002900480156113b25780601f10611387576101008083540402835291602001916113b2565b820191906000526020600020905b81548152906001019060200180831161139557829003601f168201915b505050505081565b6000600160008154809291906001019190505550814233600154604051602001808481526020018373ffffffffffffffffffffffffffffffffffffffff1673ffffffffffffffffffffffffffffffffffffffff1660601b815260140182815260200193505050506040516020818303038152906040528051906020012060001c8161144157fe5b069050919050565b600080826001546040516020018083805190602001908083835b602083106114865780518252602082019150602081019050602083039250611463565b6001836020036101000a038019825116818451168082178552505050505050905001828152602001925050506040516020818303038152906040528051906020012060001c905060016000815480929190600101919050555060035481816114ea57fe5b06915050919050565b600073ffffffffffffffffffffffffffffffffffffffff168173ffffffffffffffffffffffffffffffffffffffff16141561152d57600080fd5b8073ffffffffffffffffffffffffffffffffffffffff166000809054906101000a900473ffffffffffffffffffffffffffffffffffffffff1673ffffffffffffffffffffffffffffffffffffffff167f8be0079c531659141344cd1fd0a4f28419497f9722a3daafe3b4186f6b6457e060405160405180910390a3806000806101000a81548173ffffffffffffffffffffffffffffffffffffffff021916908373ffffffffffffffffffffffffffffffffffffffff16021790555050565b828054600181600116156101000203166002900490600052602060002090601f016020900481019282601f1061162c57805160ff191683800117855561165a565b8280016001018555821561165a579182015b8281111561165957825182559160200191906001019061163e565b5b509050611667919061166b565b5090565b61168d91905b80821115611689576000816000905550600101611671565b5090565b9056fea265627a7a723158201640c00b720df4661214ce53a00c9659a6e9e40277ea0e22f4746ac89c13656b64736f6c63430005100032",
  "source": "pragma solidity >=0.5.0 <0.6.0;\n\nimport \"./Ownable.sol\";\n\ncontract PokemonFactory is Ownable{\n\n\n    event NewPokemon(uint id, string name, string nickname, uint dna, uint pokedexNum, string stype);  \n    uint randNonce = 0;\n    uint dnaDigits = 16;\n    uint dnaModulus = 10 ** dnaDigits; \n    uint cooldownTime = 30 seconds;\n\n\n    struct Pokemon {\n        string name;\n        string nickname;\n        string stype;\n        uint id;\n        uint dna;\n        uint pokedexNum;\n        uint level;\n        uint readyTime;\n        uint health;\n    }\n    constructor() public {\n        pokedexNumToName[1] = \"bulbasaur\";\n        pokedexNumToName[2] = \"charmander\";\n        pokedexNumToName[3] = \"squirtle\";\n        pokemonNumToType[1] = \"grass\";\n        pokemonNumToType[2] = \"fire\";\n        pokemonNumToType[3] = \"water\";\n\n        pokedexNumToName[4] = \"ivysaur\";\n        pokedexNumToName[5] = \"charmeleon\";\n        pokedexNumToName[6] = \"wartortle\";\n        pokemonNumToType[4] = \"grass\";\n        pokemonNumToType[5] = \"fire\";\n        pokemonNumToType[6] = \"water\";\n\n        pokedexNumToName[7] = \"venusaur\";\n        pokedexNumToName[8] = \"charizard\";\n        pokedexNumToName[9] = \"blastoise\";\n        pokemonNumToType[7] = \"grass\";\n        pokemonNumToType[8] = \"fire\";\n        pokemonNumToType[9] = \"water\";\n    }\n\n    Pokemon[] public pokemons;\n\n    mapping (uint => address) public pokemonToOwner;\n    mapping (address => uint) ownerPokemonCount;\n    mapping (uint => string) public pokedexNumToName;\n    mapping (uint => string) public pokemonNumToType;\n\n    function addPokemonToPokedex(uint pokedexNum, string memory name) internal{\n        pokedexNumToName[pokedexNum] = name;\n    }\n\n    function _createPokemon(string memory _name, string memory _nickname, uint _dna, uint _pokedexNum, string memory _stype) public {\n        uint idPoke = pokemons.push(Pokemon(_name, _nickname, _stype, 0, _dna, _pokedexNum, 1, uint(now), 100)) - 1;\n        pokemonToOwner[idPoke] = msg.sender;\n        ownerPokemonCount[msg.sender]++;\n        pokemons[idPoke].id = idPoke;\n        emit NewPokemon(idPoke, _name, _nickname, _dna, _pokedexNum, _stype);\n    }\n\n    function _generateRandomDna(string memory _str) private returns (uint) {\n        uint rand = uint(keccak256(abi.encodePacked(_str, randNonce)));\n        randNonce++;\n        return rand % dnaModulus;\n    }\n\n    function randPokemonId(uint _modulus) internal returns(uint) {\n        randNonce++;\n        return uint(keccak256(abi.encodePacked(now, msg.sender, randNonce))) % _modulus;\n    } \n\n    function getPokemonsByOwner (address _owner) public returns (uint[] memory) {\n        uint[] memory result = new uint[](ownerPokemonCount[_owner]);\n        uint counter = 0;\n        for (uint i = 0; i < pokemons.length; i++) {\n            if (pokemonToOwner[i] == _owner) {\n            result[counter] = i;\n            counter++;\n            }\n        }   \n\n        return result;\n    }\n\n    function createRandomPokemon(string memory _nickname) public {\n        require(ownerPokemonCount[msg.sender] <=5);\n        uint randPokedexNum = randPokemonId(3);\n        string memory name = pokedexNumToName[randPokedexNum+1];\n        string memory stype = pokemonNumToType[randPokedexNum+1];\n        uint randDna = _generateRandomDna(_nickname);\n\n        _createPokemon(name, _nickname, randDna, randPokedexNum + 1, stype); \n    }\n}",
  "sourcePath": "/Users/timothyongliangli/Desktop/CryptoPokemon/contracts/PokemonFactory.sol",
  "compiler": {
    "name": "solc",
    "version": "0.5.16+commit.9c3226ce.Emscripten.clang"
  },
  "schemaVersion": "3.3.0",
  "updatedAt": "2020-10-30T20:25:51.771Z",
  "devdoc": {
    "methods": {
      "isOwner()": {
        "return": "true if `msg.sender` is the owner of the contract."
      },
      "owner()": {
        "return": "the address of the owner."
      },
      "renounceOwnership()": {
        "details": "Allows the current owner to relinquish control of the contract."
      },
      "transferOwnership(address)": {
        "details": "Allows the current owner to transfer control of the contract to a newOwner.",
        "params": {
          "newOwner": "The address to transfer ownership to."
        }
      }
    }
  },
  "userdoc": {
    "methods": {
      "renounceOwnership()": {
        "notice": "Renouncing to ownership will leave the contract without an owner. It will not be possible to call the functions with the `onlyOwner` modifier anymore."
      }
    }
  }
}